{
  "contractName": "Ako",
  "abi": [
    {
      "inputs": [],
      "stateMutability": "nonpayable",
      "type": "constructor"
    },
    {
      "anonymous": false,
      "inputs": [
        {
          "indexed": true,
          "internalType": "address",
          "name": "owner",
          "type": "address"
        },
        {
          "indexed": true,
          "internalType": "address",
          "name": "approved",
          "type": "address"
        },
        {
          "indexed": true,
          "internalType": "uint256",
          "name": "tokenId",
          "type": "uint256"
        }
      ],
      "name": "Approval",
      "type": "event"
    },
    {
      "anonymous": false,
      "inputs": [
        {
          "indexed": true,
          "internalType": "address",
          "name": "owner",
          "type": "address"
        },
        {
          "indexed": true,
          "internalType": "address",
          "name": "operator",
          "type": "address"
        },
        {
          "indexed": false,
          "internalType": "bool",
          "name": "approved",
          "type": "bool"
        }
      ],
      "name": "ApprovalForAll",
      "type": "event"
    },
    {
      "anonymous": false,
      "inputs": [
        {
          "indexed": true,
          "internalType": "address",
          "name": "previousOwner",
          "type": "address"
        },
        {
          "indexed": true,
          "internalType": "address",
          "name": "newOwner",
          "type": "address"
        }
      ],
      "name": "OwnershipTransferred",
      "type": "event"
    },
    {
      "anonymous": false,
      "inputs": [
        {
          "indexed": true,
          "internalType": "address",
          "name": "from",
          "type": "address"
        },
        {
          "indexed": true,
          "internalType": "address",
          "name": "to",
          "type": "address"
        },
        {
          "indexed": true,
          "internalType": "uint256",
          "name": "tokenId",
          "type": "uint256"
        }
      ],
      "name": "Transfer",
      "type": "event"
    },
    {
      "inputs": [
        {
          "internalType": "uint256",
          "name": "",
          "type": "uint256"
        }
      ],
      "name": "akos",
      "outputs": [
        {
          "internalType": "string",
          "name": "",
          "type": "string"
        }
      ],
      "stateMutability": "view",
      "type": "function",
      "constant": true
    },
    {
      "inputs": [
        {
          "internalType": "uint256",
          "name": "",
          "type": "uint256"
        }
      ],
      "name": "akos_approved",
      "outputs": [
        {
          "internalType": "bool",
          "name": "",
          "type": "bool"
        }
      ],
      "stateMutability": "view",
      "type": "function",
      "constant": true
    },
    {
      "inputs": [
        {
          "internalType": "uint256",
          "name": "",
          "type": "uint256"
        }
      ],
      "name": "akos_owners",
      "outputs": [
        {
          "internalType": "address",
          "name": "",
          "type": "address"
        }
      ],
      "stateMutability": "view",
      "type": "function",
      "constant": true
    },
    {
      "inputs": [
        {
          "internalType": "uint256",
          "name": "",
          "type": "uint256"
        }
      ],
      "name": "akos_price",
      "outputs": [
        {
          "internalType": "uint256",
          "name": "",
          "type": "uint256"
        }
      ],
      "stateMutability": "view",
      "type": "function",
      "constant": true
    },
    {
      "inputs": [
        {
          "internalType": "address",
          "name": "to",
          "type": "address"
        },
        {
          "internalType": "uint256",
          "name": "tokenId",
          "type": "uint256"
        }
      ],
      "name": "approve",
      "outputs": [],
      "stateMutability": "nonpayable",
      "type": "function"
    },
    {
      "inputs": [
        {
          "internalType": "address",
          "name": "owner",
          "type": "address"
        }
      ],
      "name": "balanceOf",
      "outputs": [
        {
          "internalType": "uint256",
          "name": "",
          "type": "uint256"
        }
      ],
      "stateMutability": "view",
      "type": "function",
      "constant": true
    },
    {
      "inputs": [
        {
          "internalType": "uint256",
          "name": "",
          "type": "uint256"
        }
      ],
      "name": "costOfTokens",
      "outputs": [
        {
          "internalType": "uint256",
          "name": "",
          "type": "uint256"
        }
      ],
      "stateMutability": "view",
      "type": "function",
      "constant": true
    },
    {
      "inputs": [
        {
          "internalType": "uint256",
          "name": "tokenId",
          "type": "uint256"
        }
      ],
      "name": "getApproved",
      "outputs": [
        {
          "internalType": "address",
          "name": "",
          "type": "address"
        }
      ],
      "stateMutability": "view",
      "type": "function",
      "constant": true
    },
    {
      "inputs": [
        {
          "internalType": "address",
          "name": "owner",
          "type": "address"
        },
        {
          "internalType": "address",
          "name": "operator",
          "type": "address"
        }
      ],
      "name": "isApprovedForAll",
      "outputs": [
        {
          "internalType": "bool",
          "name": "",
          "type": "bool"
        }
      ],
      "stateMutability": "view",
      "type": "function",
      "constant": true
    },
    {
      "inputs": [],
      "name": "name",
      "outputs": [
        {
          "internalType": "string",
          "name": "",
          "type": "string"
        }
      ],
      "stateMutability": "view",
      "type": "function",
      "constant": true
    },
    {
      "inputs": [],
      "name": "owner",
      "outputs": [
        {
          "internalType": "address",
          "name": "",
          "type": "address"
        }
      ],
      "stateMutability": "view",
      "type": "function",
      "constant": true
    },
    {
      "inputs": [
        {
          "internalType": "uint256",
          "name": "tokenId",
          "type": "uint256"
        }
      ],
      "name": "ownerOf",
      "outputs": [
        {
          "internalType": "address",
          "name": "",
          "type": "address"
        }
      ],
      "stateMutability": "view",
      "type": "function",
      "constant": true
    },
    {
      "inputs": [],
      "name": "renounceOwnership",
      "outputs": [],
      "stateMutability": "nonpayable",
      "type": "function"
    },
    {
      "inputs": [
        {
          "internalType": "address",
          "name": "from",
          "type": "address"
        },
        {
          "internalType": "address",
          "name": "to",
          "type": "address"
        },
        {
          "internalType": "uint256",
          "name": "tokenId",
          "type": "uint256"
        }
      ],
      "name": "safeTransferFrom",
      "outputs": [],
      "stateMutability": "nonpayable",
      "type": "function"
    },
    {
      "inputs": [
        {
          "internalType": "address",
          "name": "from",
          "type": "address"
        },
        {
          "internalType": "address",
          "name": "to",
          "type": "address"
        },
        {
          "internalType": "uint256",
          "name": "tokenId",
          "type": "uint256"
        },
        {
          "internalType": "bytes",
          "name": "_data",
          "type": "bytes"
        }
      ],
      "name": "safeTransferFrom",
      "outputs": [],
      "stateMutability": "nonpayable",
      "type": "function"
    },
    {
      "inputs": [
        {
          "internalType": "address",
          "name": "operator",
          "type": "address"
        },
        {
          "internalType": "bool",
          "name": "approved",
          "type": "bool"
        }
      ],
      "name": "setApprovalForAll",
      "outputs": [],
      "stateMutability": "nonpayable",
      "type": "function"
    },
    {
      "inputs": [],
      "name": "symbol",
      "outputs": [
        {
          "internalType": "string",
          "name": "",
          "type": "string"
        }
      ],
      "stateMutability": "view",
      "type": "function",
      "constant": true
    },
    {
      "inputs": [
        {
          "internalType": "uint256",
          "name": "index",
          "type": "uint256"
        }
      ],
      "name": "tokenByIndex",
      "outputs": [
        {
          "internalType": "uint256",
          "name": "",
          "type": "uint256"
        }
      ],
      "stateMutability": "view",
      "type": "function",
      "constant": true
    },
    {
      "inputs": [
        {
          "internalType": "address",
          "name": "owner",
          "type": "address"
        },
        {
          "internalType": "uint256",
          "name": "index",
          "type": "uint256"
        }
      ],
      "name": "tokenOfOwnerByIndex",
      "outputs": [
        {
          "internalType": "uint256",
          "name": "",
          "type": "uint256"
        }
      ],
      "stateMutability": "view",
      "type": "function",
      "constant": true
    },
    {
      "inputs": [],
      "name": "totalSupply",
      "outputs": [
        {
          "internalType": "uint256",
          "name": "",
          "type": "uint256"
        }
      ],
      "stateMutability": "view",
      "type": "function",
      "constant": true
    },
    {
      "inputs": [
        {
          "internalType": "address",
          "name": "from",
          "type": "address"
        },
        {
          "internalType": "address",
          "name": "to",
          "type": "address"
        },
        {
          "internalType": "uint256",
          "name": "tokenId",
          "type": "uint256"
        }
      ],
      "name": "transferFrom",
      "outputs": [],
      "stateMutability": "nonpayable",
      "type": "function"
    },
    {
      "inputs": [
        {
          "internalType": "address",
          "name": "newOwner",
          "type": "address"
        }
      ],
      "name": "transferOwnership",
      "outputs": [],
      "stateMutability": "nonpayable",
      "type": "function"
    },
    {
      "inputs": [
        {
          "internalType": "bytes4",
          "name": "interfaceId",
          "type": "bytes4"
        }
      ],
      "name": "supportsInterface",
      "outputs": [
        {
          "internalType": "bool",
          "name": "",
          "type": "bool"
        }
      ],
      "stateMutability": "view",
      "type": "function",
      "constant": true
    },
    {
      "inputs": [
        {
          "internalType": "uint256",
          "name": "tokenId",
          "type": "uint256"
        }
      ],
      "name": "tokenURI",
      "outputs": [
        {
          "internalType": "string",
          "name": "",
          "type": "string"
        }
      ],
      "stateMutability": "view",
      "type": "function",
      "constant": true
    },
    {
      "inputs": [
        {
          "internalType": "string",
          "name": "_tokenURI",
          "type": "string"
        }
      ],
      "name": "mintToken",
      "outputs": [
        {
          "internalType": "uint256",
          "name": "",
          "type": "uint256"
        }
      ],
      "stateMutability": "nonpayable",
      "type": "function"
    },
    {
      "inputs": [
        {
          "internalType": "uint256",
          "name": "_id",
          "type": "uint256"
        },
        {
          "internalType": "uint256",
          "name": "_price",
          "type": "uint256"
        }
      ],
      "name": "sellToken",
      "outputs": [],
      "stateMutability": "nonpayable",
      "type": "function"
    },
    {
      "inputs": [
        {
          "internalType": "uint256",
          "name": "_index",
          "type": "uint256"
        }
      ],
      "name": "printCost",
      "outputs": [
        {
          "internalType": "uint256",
          "name": "",
          "type": "uint256"
        }
      ],
      "stateMutability": "view",
      "type": "function",
      "constant": true
    },
    {
      "inputs": [
        {
          "internalType": "uint256",
          "name": "_id",
          "type": "uint256"
        }
      ],
      "name": "buyToken",
      "outputs": [],
      "stateMutability": "payable",
      "type": "function",
      "payable": true
    },
    {
      "inputs": [
        {
          "internalType": "uint256",
          "name": "_id",
          "type": "uint256"
        },
        {
          "internalType": "uint256",
          "name": "_newPrice",
          "type": "uint256"
        }
      ],
      "name": "changePrice",
      "outputs": [],
      "stateMutability": "nonpayable",
      "type": "function"
    },
    {
      "inputs": [
        {
          "internalType": "uint256",
          "name": "_id",
          "type": "uint256"
        }
      ],
      "name": "sellCancel",
      "outputs": [],
      "stateMutability": "nonpayable",
      "type": "function"
    }
  ],
  "bytecode": "0x60806040523480156200001157600080fd5b506040518060400160405280600481526020017f412d4b4f000000000000000000000000000000000000000000000000000000008152506040518060400160405280600381526020017f414b4f0000000000000000000000000000000000000000000000000000000000815250816000908051906020019062000096929190620001a6565b508060019080519060200190620000af929190620001a6565b505050620000d2620000c6620000d860201b60201c565b620000e060201b60201c565b620002ba565b600033905090565b6000600760009054906101000a900473ffffffffffffffffffffffffffffffffffffffff16905081600760006101000a81548173ffffffffffffffffffffffffffffffffffffffff021916908373ffffffffffffffffffffffffffffffffffffffff1602179055508173ffffffffffffffffffffffffffffffffffffffff168173ffffffffffffffffffffffffffffffffffffffff167f8be0079c531659141344cd1fd0a4f28419497f9722a3daafe3b4186f6b6457e060405160405180910390a35050565b828054620001b49062000285565b90600052602060002090601f016020900481019282620001d8576000855562000224565b82601f10620001f357805160ff191683800117855562000224565b8280016001018555821562000224579182015b828111156200022357825182559160200191906001019062000206565b5b50905062000233919062000237565b5090565b5b808211156200025257600081600090555060010162000238565b5090565b7f4e487b7100000000000000000000000000000000000000000000000000000000600052602260045260246000fd5b600060028204905060018216806200029e57607f821691505b602082108103620002b457620002b362000256565b5b50919050565b614b8e80620002ca6000396000f3fe6080604052600436106101cd5760003560e01c80634932c35a116100f757806395d89b4111610095578063c87b56dd11610064578063c87b56dd146106d5578063e985e9c514610712578063e9afd06c1461074f578063f2fde38b1461078c576101cd565b806395d89b411461062f578063a22cb4651461065a578063b3de019c14610683578063b88d4fde146106ac576101cd565b80636352211e116100d15780636352211e1461057357806370a08231146105b0578063715018a6146105ed5780638da5cb5b14610604576101cd565b80634932c35a146104bc5780634f6ccce7146104f9578063634aa89914610536576101cd565b80631897bcf31161016f5780632f745c591161013e5780632f745c59146103f057806333eba49a1461042d5780633cb268171461046a57806342842e0e14610493576101cd565b80631897bcf31461034557806323b872dd1461036e5780632b471582146103975780632d296bf1146103d4576101cd565b8063081812fc116101ab578063081812fc14610277578063095ea7b3146102b45780630ca9dc7a146102dd57806318160ddd1461031a576101cd565b806301ffc9a7146101d2578063026f38f11461020f57806306fdde031461024c575b600080fd5b3480156101de57600080fd5b506101f960048036038101906101f49190613294565b6107b5565b60405161020691906132dc565b60405180910390f35b34801561021b57600080fd5b506102366004803603810190610231919061332d565b6107c7565b6040516102439190613369565b60405180910390f35b34801561025857600080fd5b506102616107eb565b60405161026e919061341d565b60405180910390f35b34801561028357600080fd5b5061029e6004803603810190610299919061332d565b61087d565b6040516102ab9190613480565b60405180910390f35b3480156102c057600080fd5b506102db60048036038101906102d691906134c7565b610902565b005b3480156102e957600080fd5b5061030460048036038101906102ff919061332d565b610a19565b6040516103119190613480565b60405180910390f35b34801561032657600080fd5b5061032f610a58565b60405161033c9190613369565b60405180910390f35b34801561035157600080fd5b5061036c60048036038101906103679190613507565b610a65565b005b34801561037a57600080fd5b5061039560048036038101906103909190613547565b610c84565b005b3480156103a357600080fd5b506103be60048036038101906103b9919061332d565b610ce4565b6040516103cb9190613369565b60405180910390f35b6103ee60048036038101906103e9919061332d565b610d01565b005b3480156103fc57600080fd5b50610417600480360381019061041291906134c7565b6110a6565b6040516104249190613369565b60405180910390f35b34801561043957600080fd5b50610454600480360381019061044f91906136cf565b61114b565b6040516104619190613369565b60405180910390f35b34801561047657600080fd5b50610491600480360381019061048c919061332d565b611313565b005b34801561049f57600080fd5b506104ba60048036038101906104b59190613547565b6114f0565b005b3480156104c857600080fd5b506104e360048036038101906104de919061332d565b611510565b6040516104f0919061341d565b60405180910390f35b34801561050557600080fd5b50610520600480360381019061051b919061332d565b6115bc565b60405161052d9190613369565b60405180910390f35b34801561054257600080fd5b5061055d6004803603810190610558919061332d565b61162d565b60405161056a9190613369565b60405180910390f35b34801561057f57600080fd5b5061059a6004803603810190610595919061332d565b611645565b6040516105a79190613480565b60405180910390f35b3480156105bc57600080fd5b506105d760048036038101906105d29190613718565b6116f6565b6040516105e49190613369565b60405180910390f35b3480156105f957600080fd5b506106026117ad565b005b34801561061057600080fd5b50610619611835565b6040516106269190613480565b60405180910390f35b34801561063b57600080fd5b5061064461185f565b604051610651919061341d565b60405180910390f35b34801561066657600080fd5b50610681600480360381019061067c9190613771565b6118f1565b005b34801561068f57600080fd5b506106aa60048036038101906106a59190613507565b611907565b005b3480156106b857600080fd5b506106d360048036038101906106ce9190613852565b611ad1565b005b3480156106e157600080fd5b506106fc60048036038101906106f7919061332d565b611b33565b604051610709919061341d565b60405180910390f35b34801561071e57600080fd5b50610739600480360381019061073491906138d5565b611b45565b60405161074691906132dc565b60405180910390f35b34801561075b57600080fd5b506107766004803603810190610771919061332d565b611bd9565b60405161078391906132dc565b60405180910390f35b34801561079857600080fd5b506107b360048036038101906107ae9190613718565b611c0d565b005b60006107c082611d04565b9050919050565b600f81815481106107d757600080fd5b906000526020600020016000915090505481565b6060600080546107fa90613944565b80601f016020809104026020016040519081016040528092919081815260200182805461082690613944565b80156108735780601f1061084857610100808354040283529160200191610873565b820191906000526020600020905b81548152906001019060200180831161085657829003601f168201915b5050505050905090565b600061088882611d7e565b6108c7576040517f08c379a00000000000000000000000000000000000000000000000000000000081526004016108be906139e7565b60405180910390fd5b6004600083815260200190815260200160002060009054906101000a900473ffffffffffffffffffffffffffffffffffffffff169050919050565b600061090d82611645565b90508073ffffffffffffffffffffffffffffffffffffffff168373ffffffffffffffffffffffffffffffffffffffff160361097d576040517f08c379a000000000000000000000000000000000000000000000000000000000815260040161097490613a79565b60405180910390fd5b8073ffffffffffffffffffffffffffffffffffffffff1661099c611dea565b73ffffffffffffffffffffffffffffffffffffffff1614806109cb57506109ca816109c5611dea565b611b45565b5b610a0a576040517f08c379a0000000000000000000000000000000000000000000000000000000008152600401610a0190613b0b565b60405180910390fd5b610a148383611df2565b505050565b600e8181548110610a2957600080fd5b906000526020600020016000915054906101000a900473ffffffffffffffffffffffffffffffffffffffff1681565b6000600a80549050905090565b610a6e82611d7e565b610aad576040517f08c379a0000000000000000000000000000000000000000000000000000000008152600401610aa490613b77565b60405180910390fd5b6000811015610af1576040517f08c379a0000000000000000000000000000000000000000000000000000000008152600401610ae890613c09565b60405180910390fd5b6000610afc83611645565b90503373ffffffffffffffffffffffffffffffffffffffff168173ffffffffffffffffffffffffffffffffffffffff1614610b6c576040517f08c379a0000000000000000000000000000000000000000000000000000000008152600401610b6390613c75565b60405180910390fd5b600073ffffffffffffffffffffffffffffffffffffffff16610b8d8461087d565b73ffffffffffffffffffffffffffffffffffffffff1614610be3576040517f08c379a0000000000000000000000000000000000000000000000000000000008152600401610bda90613ce1565b60405180910390fd5b610bed3084611df2565b81601160008581526020019081526020016000208190555081600f600185610c159190613d30565b81548110610c2657610c25613d64565b5b906000526020600020018190555060016010600185610c459190613d30565b81548110610c5657610c55613d64565b5b90600052602060002090602091828204019190066101000a81548160ff021916908315150217905550505050565b610c95610c8f611dea565b82611eab565b610cd4576040517f08c379a0000000000000000000000000000000000000000000000000000000008152600401610ccb90613e05565b60405180910390fd5b610cdf838383611f89565b505050565b600060116000838152602001908152602001600020549050919050565b610d0a81611d7e565b610d49576040517f08c379a0000000000000000000000000000000000000000000000000000000008152600401610d4090613b77565b60405180910390fd5b600073ffffffffffffffffffffffffffffffffffffffff16610d6a8261087d565b73ffffffffffffffffffffffffffffffffffffffff1603610dc0576040517f08c379a0000000000000000000000000000000000000000000000000000000008152600401610db790613ce1565b60405180910390fd5b3373ffffffffffffffffffffffffffffffffffffffff16610de082611645565b73ffffffffffffffffffffffffffffffffffffffff1603610e36576040517f08c379a0000000000000000000000000000000000000000000000000000000008152600401610e2d90613e71565b60405180910390fd5b6000601160008381526020019081526020016000205490506000610e5983611645565b905034670de0b6b3a764000083610e709190613e91565b1115610eb1576040517f08c379a0000000000000000000000000000000000000000000000000000000008152600401610ea890613f37565b60405180910390fd5b60008173ffffffffffffffffffffffffffffffffffffffff166000670de0b6b3a764000085610ee09190613e91565b604051610eec90613f88565b600060405180830381858888f193505050503d8060008114610f2a576040519150601f19603f3d011682016040523d82523d6000602084013e610f2f565b606091505b505090503373ffffffffffffffffffffffffffffffffffffffff166108fc670de0b6b3a764000085610f619190613e91565b34610f6c9190613d30565b9081150290604051600060405180830381858888f19350505050158015610f97573d6000803e3d6000fd5b50610fa3823386611f89565b6000601160008681526020019081526020016000208190555033600e600186610fcc9190613d30565b81548110610fdd57610fdc613d64565b5b9060005260206000200160006101000a81548173ffffffffffffffffffffffffffffffffffffffff021916908373ffffffffffffffffffffffffffffffffffffffff1602179055506000600f6001866110369190613d30565b8154811061104757611046613d64565b5b9060005260206000200181905550600060106001866110669190613d30565b8154811061107757611076613d64565b5b90600052602060002090602091828204019190066101000a81548160ff02191690831515021790555050505050565b60006110b1836116f6565b82106110f2576040517f08c379a00000000000000000000000000000000000000000000000000000000081526004016110e99061400f565b60405180910390fd5b600860008473ffffffffffffffffffffffffffffffffffffffff1673ffffffffffffffffffffffffffffffffffffffff168152602001908152602001600020600083815260200190815260200160002054905092915050565b6000611155611dea565b73ffffffffffffffffffffffffffffffffffffffff16611173611835565b73ffffffffffffffffffffffffffffffffffffffff16146111c9576040517f08c379a00000000000000000000000000000000000000000000000000000000081526004016111c09061407b565b60405180910390fd5b6111d3600c6121ef565b60006111df600c612205565b90506111f26111ec611dea565b82612213565b6111fc81846123ec565b600d83908060018154018082558091505060019003906000526020600020016000909190919091509080519060200190611237929190613185565b50600e339080600181540180825580915050600190039060005260206000200160009091909190916101000a81548173ffffffffffffffffffffffffffffffffffffffff021916908373ffffffffffffffffffffffffffffffffffffffff160217905550600f600090806001815401808255809150506001900390600052602060002001600090919091909150556010600090806001815401808255809150506001900390600052602060002090602091828204019190069091909190916101000a81548160ff02191690831515021790555080915050919050565b600061131e82611645565b905061132982611d7e565b611368576040517f08c379a000000000000000000000000000000000000000000000000000000000815260040161135f90613b77565b60405180910390fd5b3373ffffffffffffffffffffffffffffffffffffffff168173ffffffffffffffffffffffffffffffffffffffff16146113d6576040517f08c379a00000000000000000000000000000000000000000000000000000000081526004016113cd90613c75565b60405180910390fd5b600073ffffffffffffffffffffffffffffffffffffffff166113f78361087d565b73ffffffffffffffffffffffffffffffffffffffff160361144d576040517f08c379a000000000000000000000000000000000000000000000000000000000815260040161144490613ce1565b60405180910390fd5b60006011600084815260200190815260200160002081905550611471600083611df2565b6000600f6001846114829190613d30565b8154811061149357611492613d64565b5b9060005260206000200181905550600060106001846114b29190613d30565b815481106114c3576114c2613d64565b5b90600052602060002090602091828204019190066101000a81548160ff0219169083151502179055505050565b61150b83838360405180602001604052806000815250611ad1565b505050565b600d818154811061152057600080fd5b90600052602060002001600091509050805461153b90613944565b80601f016020809104026020016040519081016040528092919081815260200182805461156790613944565b80156115b45780601f10611589576101008083540402835291602001916115b4565b820191906000526020600020905b81548152906001019060200180831161159757829003601f168201915b505050505081565b60006115c6610a58565b8210611607576040517f08c379a00000000000000000000000000000000000000000000000000000000081526004016115fe9061410d565b60405180910390fd5b600a828154811061161b5761161a613d64565b5b90600052602060002001549050919050565b60116020528060005260406000206000915090505481565b6000806002600084815260200190815260200160002060009054906101000a900473ffffffffffffffffffffffffffffffffffffffff169050600073ffffffffffffffffffffffffffffffffffffffff168173ffffffffffffffffffffffffffffffffffffffff16036116ed576040517f08c379a00000000000000000000000000000000000000000000000000000000081526004016116e49061419f565b60405180910390fd5b80915050919050565b60008073ffffffffffffffffffffffffffffffffffffffff168273ffffffffffffffffffffffffffffffffffffffff1603611766576040517f08c379a000000000000000000000000000000000000000000000000000000000815260040161175d90614231565b60405180910390fd5b600360008373ffffffffffffffffffffffffffffffffffffffff1673ffffffffffffffffffffffffffffffffffffffff168152602001908152602001600020549050919050565b6117b5611dea565b73ffffffffffffffffffffffffffffffffffffffff166117d3611835565b73ffffffffffffffffffffffffffffffffffffffff1614611829576040517f08c379a00000000000000000000000000000000000000000000000000000000081526004016118209061407b565b60405180910390fd5b6118336000612460565b565b6000600760009054906101000a900473ffffffffffffffffffffffffffffffffffffffff16905090565b60606001805461186e90613944565b80601f016020809104026020016040519081016040528092919081815260200182805461189a90613944565b80156118e75780601f106118bc576101008083540402835291602001916118e7565b820191906000526020600020905b8154815290600101906020018083116118ca57829003601f168201915b5050505050905090565b6119036118fc611dea565b8383612526565b5050565b61191082611d7e565b61194f576040517f08c379a000000000000000000000000000000000000000000000000000000000815260040161194690613b77565b60405180910390fd5b6000811015611993576040517f08c379a000000000000000000000000000000000000000000000000000000000815260040161198a906142c3565b60405180910390fd5b600061199e83611645565b90503373ffffffffffffffffffffffffffffffffffffffff168173ffffffffffffffffffffffffffffffffffffffff1614611a0e576040517f08c379a0000000000000000000000000000000000000000000000000000000008152600401611a0590613c75565b60405180910390fd5b600073ffffffffffffffffffffffffffffffffffffffff16611a2f8461087d565b73ffffffffffffffffffffffffffffffffffffffff1603611a85576040517f08c379a0000000000000000000000000000000000000000000000000000000008152600401611a7c90613ce1565b60405180910390fd5b81601160008581526020019081526020016000208190555081600f600185611aad9190613d30565b81548110611abe57611abd613d64565b5b9060005260206000200181905550505050565b611ae2611adc611dea565b83611eab565b611b21576040517f08c379a0000000000000000000000000000000000000000000000000000000008152600401611b1890613e05565b60405180910390fd5b611b2d84848484612692565b50505050565b6060611b3e826126ee565b9050919050565b6000600560008473ffffffffffffffffffffffffffffffffffffffff1673ffffffffffffffffffffffffffffffffffffffff16815260200190815260200160002060008373ffffffffffffffffffffffffffffffffffffffff1673ffffffffffffffffffffffffffffffffffffffff16815260200190815260200160002060009054906101000a900460ff16905092915050565b60108181548110611be957600080fd5b9060005260206000209060209182820401919006915054906101000a900460ff1681565b611c15611dea565b73ffffffffffffffffffffffffffffffffffffffff16611c33611835565b73ffffffffffffffffffffffffffffffffffffffff1614611c89576040517f08c379a0000000000000000000000000000000000000000000000000000000008152600401611c809061407b565b60405180910390fd5b600073ffffffffffffffffffffffffffffffffffffffff168173ffffffffffffffffffffffffffffffffffffffff1603611cf8576040517f08c379a0000000000000000000000000000000000000000000000000000000008152600401611cef90614355565b60405180910390fd5b611d0181612460565b50565b60007f780e9d63000000000000000000000000000000000000000000000000000000007bffffffffffffffffffffffffffffffffffffffffffffffffffffffff1916827bffffffffffffffffffffffffffffffffffffffffffffffffffffffff19161480611d775750611d768261283f565b5b9050919050565b60008073ffffffffffffffffffffffffffffffffffffffff166002600084815260200190815260200160002060009054906101000a900473ffffffffffffffffffffffffffffffffffffffff1673ffffffffffffffffffffffffffffffffffffffff1614159050919050565b600033905090565b816004600083815260200190815260200160002060006101000a81548173ffffffffffffffffffffffffffffffffffffffff021916908373ffffffffffffffffffffffffffffffffffffffff160217905550808273ffffffffffffffffffffffffffffffffffffffff16611e6583611645565b73ffffffffffffffffffffffffffffffffffffffff167f8c5be1e5ebec7d5bd14f71427d1e84f3dd0314c0f7b2291e5b200ac8c7c3b92560405160405180910390a45050565b6000611eb682611d7e565b611ef5576040517f08c379a0000000000000000000000000000000000000000000000000000000008152600401611eec906143e7565b60405180910390fd5b6000611f0083611645565b90508073ffffffffffffffffffffffffffffffffffffffff168473ffffffffffffffffffffffffffffffffffffffff161480611f6f57508373ffffffffffffffffffffffffffffffffffffffff16611f578461087d565b73ffffffffffffffffffffffffffffffffffffffff16145b80611f805750611f7f8185611b45565b5b91505092915050565b8273ffffffffffffffffffffffffffffffffffffffff16611fa982611645565b73ffffffffffffffffffffffffffffffffffffffff1614611fff576040517f08c379a0000000000000000000000000000000000000000000000000000000008152600401611ff690614479565b60405180910390fd5b600073ffffffffffffffffffffffffffffffffffffffff168273ffffffffffffffffffffffffffffffffffffffff160361206e576040517f08c379a00000000000000000000000000000000000000000000000000000000081526004016120659061450b565b60405180910390fd5b612079838383612921565b612084600082611df2565b6001600360008573ffffffffffffffffffffffffffffffffffffffff1673ffffffffffffffffffffffffffffffffffffffff16815260200190815260200160002060008282546120d49190613d30565b925050819055506001600360008473ffffffffffffffffffffffffffffffffffffffff1673ffffffffffffffffffffffffffffffffffffffff168152602001908152602001600020600082825461212b919061452b565b92505081905550816002600083815260200190815260200160002060006101000a81548173ffffffffffffffffffffffffffffffffffffffff021916908373ffffffffffffffffffffffffffffffffffffffff160217905550808273ffffffffffffffffffffffffffffffffffffffff168473ffffffffffffffffffffffffffffffffffffffff167fddf252ad1be2c89b69c2b068fc378daa952ba7f163c4a11628f55a4df523b3ef60405160405180910390a46121ea838383612931565b505050565b6001816000016000828254019250508190555050565b600081600001549050919050565b600073ffffffffffffffffffffffffffffffffffffffff168273ffffffffffffffffffffffffffffffffffffffff1603612282576040517f08c379a0000000000000000000000000000000000000000000000000000000008152600401612279906145cd565b60405180910390fd5b61228b81611d7e565b156122cb576040517f08c379a00000000000000000000000000000000000000000000000000000000081526004016122c290614639565b60405180910390fd5b6122d760008383612921565b6001600360008473ffffffffffffffffffffffffffffffffffffffff1673ffffffffffffffffffffffffffffffffffffffff1681526020019081526020016000206000828254612327919061452b565b92505081905550816002600083815260200190815260200160002060006101000a81548173ffffffffffffffffffffffffffffffffffffffff021916908373ffffffffffffffffffffffffffffffffffffffff160217905550808273ffffffffffffffffffffffffffffffffffffffff16600073ffffffffffffffffffffffffffffffffffffffff167fddf252ad1be2c89b69c2b068fc378daa952ba7f163c4a11628f55a4df523b3ef60405160405180910390a46123e860008383612931565b5050565b6123f582611d7e565b612434576040517f08c379a000000000000000000000000000000000000000000000000000000000815260040161242b906146cb565b60405180910390fd5b8060066000848152602001908152602001600020908051906020019061245b929190613185565b505050565b6000600760009054906101000a900473ffffffffffffffffffffffffffffffffffffffff16905081600760006101000a81548173ffffffffffffffffffffffffffffffffffffffff021916908373ffffffffffffffffffffffffffffffffffffffff1602179055508173ffffffffffffffffffffffffffffffffffffffff168173ffffffffffffffffffffffffffffffffffffffff167f8be0079c531659141344cd1fd0a4f28419497f9722a3daafe3b4186f6b6457e060405160405180910390a35050565b8173ffffffffffffffffffffffffffffffffffffffff168373ffffffffffffffffffffffffffffffffffffffff1603612594576040517f08c379a000000000000000000000000000000000000000000000000000000000815260040161258b90614737565b60405180910390fd5b80600560008573ffffffffffffffffffffffffffffffffffffffff1673ffffffffffffffffffffffffffffffffffffffff16815260200190815260200160002060008473ffffffffffffffffffffffffffffffffffffffff1673ffffffffffffffffffffffffffffffffffffffff16815260200190815260200160002060006101000a81548160ff0219169083151502179055508173ffffffffffffffffffffffffffffffffffffffff168373ffffffffffffffffffffffffffffffffffffffff167f17307eab39ab6107e8899845ad3d59bd9653f200f220920489ca2b5937696c318360405161268591906132dc565b60405180910390a3505050565b61269d848484611f89565b6126a984848484612936565b6126e8576040517f08c379a00000000000000000000000000000000000000000000000000000000081526004016126df906147c9565b60405180910390fd5b50505050565b60606126f982611d7e565b612738576040517f08c379a000000000000000000000000000000000000000000000000000000000815260040161272f9061485b565b60405180910390fd5b600060066000848152602001908152602001600020805461275890613944565b80601f016020809104026020016040519081016040528092919081815260200182805461278490613944565b80156127d15780601f106127a6576101008083540402835291602001916127d1565b820191906000526020600020905b8154815290600101906020018083116127b457829003601f168201915b5050505050905060006127e2612abd565b905060008151036127f757819250505061283a565b60008251111561282c5780826040516020016128149291906148b7565b6040516020818303038152906040529250505061283a565b61283584612ad4565b925050505b919050565b60007f80ac58cd000000000000000000000000000000000000000000000000000000007bffffffffffffffffffffffffffffffffffffffffffffffffffffffff1916827bffffffffffffffffffffffffffffffffffffffffffffffffffffffff1916148061290a57507f5b5e139f000000000000000000000000000000000000000000000000000000007bffffffffffffffffffffffffffffffffffffffffffffffffffffffff1916827bffffffffffffffffffffffffffffffffffffffffffffffffffffffff1916145b8061291a575061291982612b7b565b5b9050919050565b61292c838383612be5565b505050565b505050565b60006129578473ffffffffffffffffffffffffffffffffffffffff16612cf7565b15612ab0578373ffffffffffffffffffffffffffffffffffffffff1663150b7a02612980611dea565b8786866040518563ffffffff1660e01b81526004016129a29493929190614930565b6020604051808303816000875af19250505080156129de57506040513d601f19601f820116820180604052508101906129db9190614991565b60015b612a60573d8060008114612a0e576040519150601f19603f3d011682016040523d82523d6000602084013e612a13565b606091505b506000815103612a58576040517f08c379a0000000000000000000000000000000000000000000000000000000008152600401612a4f906147c9565b60405180910390fd5b805181602001fd5b63150b7a0260e01b7bffffffffffffffffffffffffffffffffffffffffffffffffffffffff1916817bffffffffffffffffffffffffffffffffffffffffffffffffffffffff191614915050612ab5565b600190505b949350505050565b606060405180602001604052806000815250905090565b6060612adf82611d7e565b612b1e576040517f08c379a0000000000000000000000000000000000000000000000000000000008152600401612b1590614a30565b60405180910390fd5b6000612b28612abd565b90506000815111612b485760405180602001604052806000815250612b73565b80612b5284612d1a565b604051602001612b639291906148b7565b6040516020818303038152906040525b915050919050565b60007f01ffc9a7000000000000000000000000000000000000000000000000000000007bffffffffffffffffffffffffffffffffffffffffffffffffffffffff1916827bffffffffffffffffffffffffffffffffffffffffffffffffffffffff1916149050919050565b612bf0838383612e7a565b600073ffffffffffffffffffffffffffffffffffffffff168373ffffffffffffffffffffffffffffffffffffffff1603612c3257612c2d81612e7f565b612c71565b8173ffffffffffffffffffffffffffffffffffffffff168373ffffffffffffffffffffffffffffffffffffffff1614612c7057612c6f8382612ec8565b5b5b600073ffffffffffffffffffffffffffffffffffffffff168273ffffffffffffffffffffffffffffffffffffffff1603612cb357612cae81613035565b612cf2565b8273ffffffffffffffffffffffffffffffffffffffff168273ffffffffffffffffffffffffffffffffffffffff1614612cf157612cf08282613106565b5b5b505050565b6000808273ffffffffffffffffffffffffffffffffffffffff163b119050919050565b606060008203612d61576040518060400160405280600181526020017f30000000000000000000000000000000000000000000000000000000000000008152509050612e75565b600082905060005b60008214612d93578080612d7c90614a50565b915050600a82612d8c9190614ac7565b9150612d69565b60008167ffffffffffffffff811115612daf57612dae6135a4565b5b6040519080825280601f01601f191660200182016040528015612de15781602001600182028036833780820191505090505b5090505b60008514612e6e57600182612dfa9190613d30565b9150600a85612e099190614af8565b6030612e15919061452b565b60f81b818381518110612e2b57612e2a613d64565b5b60200101907effffffffffffffffffffffffffffffffffffffffffffffffffffffffffffff1916908160001a905350600a85612e679190614ac7565b9450612de5565b8093505050505b919050565b505050565b600a80549050600b600083815260200190815260200160002081905550600a81908060018154018082558091505060019003906000526020600020016000909190919091505550565b60006001612ed5846116f6565b612edf9190613d30565b9050600060096000848152602001908152602001600020549050818114612fc4576000600860008673ffffffffffffffffffffffffffffffffffffffff1673ffffffffffffffffffffffffffffffffffffffff168152602001908152602001600020600084815260200190815260200160002054905080600860008773ffffffffffffffffffffffffffffffffffffffff1673ffffffffffffffffffffffffffffffffffffffff168152602001908152602001600020600084815260200190815260200160002081905550816009600083815260200190815260200160002081905550505b6009600084815260200190815260200160002060009055600860008573ffffffffffffffffffffffffffffffffffffffff1673ffffffffffffffffffffffffffffffffffffffff16815260200190815260200160002060008381526020019081526020016000206000905550505050565b60006001600a805490506130499190613d30565b90506000600b60008481526020019081526020016000205490506000600a838154811061307957613078613d64565b5b9060005260206000200154905080600a838154811061309b5761309a613d64565b5b906000526020600020018190555081600b600083815260200190815260200160002081905550600b600085815260200190815260200160002060009055600a8054806130ea576130e9614b29565b5b6001900381819060005260206000200160009055905550505050565b6000613111836116f6565b905081600860008573ffffffffffffffffffffffffffffffffffffffff1673ffffffffffffffffffffffffffffffffffffffff168152602001908152602001600020600083815260200190815260200160002081905550806009600084815260200190815260200160002081905550505050565b82805461319190613944565b90600052602060002090601f0160209004810192826131b357600085556131fa565b82601f106131cc57805160ff19168380011785556131fa565b828001600101855582156131fa579182015b828111156131f95782518255916020019190600101906131de565b5b509050613207919061320b565b5090565b5b8082111561322457600081600090555060010161320c565b5090565b6000604051905090565b600080fd5b600080fd5b60007fffffffff0000000000000000000000000000000000000000000000000000000082169050919050565b6132718161323c565b811461327c57600080fd5b50565b60008135905061328e81613268565b92915050565b6000602082840312156132aa576132a9613232565b5b60006132b88482850161327f565b91505092915050565b60008115159050919050565b6132d6816132c1565b82525050565b60006020820190506132f160008301846132cd565b92915050565b6000819050919050565b61330a816132f7565b811461331557600080fd5b50565b60008135905061332781613301565b92915050565b60006020828403121561334357613342613232565b5b600061335184828501613318565b91505092915050565b613363816132f7565b82525050565b600060208201905061337e600083018461335a565b92915050565b600081519050919050565b600082825260208201905092915050565b60005b838110156133be5780820151818401526020810190506133a3565b838111156133cd576000848401525b50505050565b6000601f19601f8301169050919050565b60006133ef82613384565b6133f9818561338f565b93506134098185602086016133a0565b613412816133d3565b840191505092915050565b6000602082019050818103600083015261343781846133e4565b905092915050565b600073ffffffffffffffffffffffffffffffffffffffff82169050919050565b600061346a8261343f565b9050919050565b61347a8161345f565b82525050565b60006020820190506134956000830184613471565b92915050565b6134a48161345f565b81146134af57600080fd5b50565b6000813590506134c18161349b565b92915050565b600080604083850312156134de576134dd613232565b5b60006134ec858286016134b2565b92505060206134fd85828601613318565b9150509250929050565b6000806040838503121561351e5761351d613232565b5b600061352c85828601613318565b925050602061353d85828601613318565b9150509250929050565b6000806000606084860312156135605761355f613232565b5b600061356e868287016134b2565b935050602061357f868287016134b2565b925050604061359086828701613318565b9150509250925092565b600080fd5b600080fd5b7f4e487b7100000000000000000000000000000000000000000000000000000000600052604160045260246000fd5b6135dc826133d3565b810181811067ffffffffffffffff821117156135fb576135fa6135a4565b5b80604052505050565b600061360e613228565b905061361a82826135d3565b919050565b600067ffffffffffffffff82111561363a576136396135a4565b5b613643826133d3565b9050602081019050919050565b82818337600083830152505050565b600061367261366d8461361f565b613604565b90508281526020810184848401111561368e5761368d61359f565b5b613699848285613650565b509392505050565b600082601f8301126136b6576136b561359a565b5b81356136c684826020860161365f565b91505092915050565b6000602082840312156136e5576136e4613232565b5b600082013567ffffffffffffffff81111561370357613702613237565b5b61370f848285016136a1565b91505092915050565b60006020828403121561372e5761372d613232565b5b600061373c848285016134b2565b91505092915050565b61374e816132c1565b811461375957600080fd5b50565b60008135905061376b81613745565b92915050565b6000806040838503121561378857613787613232565b5b6000613796858286016134b2565b92505060206137a78582860161375c565b9150509250929050565b600067ffffffffffffffff8211156137cc576137cb6135a4565b5b6137d5826133d3565b9050602081019050919050565b60006137f56137f0846137b1565b613604565b9050828152602081018484840111156138115761381061359f565b5b61381c848285613650565b509392505050565b600082601f8301126138395761383861359a565b5b81356138498482602086016137e2565b91505092915050565b6000806000806080858703121561386c5761386b613232565b5b600061387a878288016134b2565b945050602061388b878288016134b2565b935050604061389c87828801613318565b925050606085013567ffffffffffffffff8111156138bd576138bc613237565b5b6138c987828801613824565b91505092959194509250565b600080604083850312156138ec576138eb613232565b5b60006138fa858286016134b2565b925050602061390b858286016134b2565b9150509250929050565b7f4e487b7100000000000000000000000000000000000000000000000000000000600052602260045260246000fd5b6000600282049050600182168061395c57607f821691505b60208210810361396f5761396e613915565b5b50919050565b7f4552433732313a20617070726f76656420717565727920666f72206e6f6e657860008201527f697374656e7420746f6b656e0000000000000000000000000000000000000000602082015250565b60006139d1602c8361338f565b91506139dc82613975565b604082019050919050565b60006020820190508181036000830152613a00816139c4565b9050919050565b7f4552433732313a20617070726f76616c20746f2063757272656e74206f776e6560008201527f7200000000000000000000000000000000000000000000000000000000000000602082015250565b6000613a6360218361338f565b9150613a6e82613a07565b604082019050919050565b60006020820190508181036000830152613a9281613a56565b9050919050565b7f4552433732313a20617070726f76652063616c6c6572206973206e6f74206f7760008201527f6e6572206e6f7220617070726f76656420666f7220616c6c0000000000000000602082015250565b6000613af560388361338f565b9150613b0082613a99565b604082019050919050565b60006020820190508181036000830152613b2481613ae8565b9050919050565b7f746f6b656e206973206e6f742065786973740000000000000000000000000000600082015250565b6000613b6160128361338f565b9150613b6c82613b2b565b602082019050919050565b60006020820190508181036000830152613b9081613b54565b9050919050565b7f70726963652073686f756c642062652067726561746572207468616e207a657260008201527f6f00000000000000000000000000000000000000000000000000000000000000602082015250565b6000613bf360218361338f565b9150613bfe82613b97565b604082019050919050565b60006020820190508181036000830152613c2281613be6565b9050919050565b7f796f7520617265206e6f7420746f6b656e206f776e6572000000000000000000600082015250565b6000613c5f60178361338f565b9150613c6a82613c29565b602082019050919050565b60006020820190508181036000830152613c8e81613c52565b9050919050565b7f796f752063616e206e6f74206275790000000000000000000000000000000000600082015250565b6000613ccb600f8361338f565b9150613cd682613c95565b602082019050919050565b60006020820190508181036000830152613cfa81613cbe565b9050919050565b7f4e487b7100000000000000000000000000000000000000000000000000000000600052601160045260246000fd5b6000613d3b826132f7565b9150613d46836132f7565b925082821015613d5957613d58613d01565b5b828203905092915050565b7f4e487b7100000000000000000000000000000000000000000000000000000000600052603260045260246000fd5b7f4552433732313a207472616e736665722063616c6c6572206973206e6f74206f60008201527f776e6572206e6f7220617070726f766564000000000000000000000000000000602082015250565b6000613def60318361338f565b9150613dfa82613d93565b604082019050919050565b60006020820190508181036000830152613e1e81613de2565b9050919050565b7f796f752061726520746f6b656e206f776e657200000000000000000000000000600082015250565b6000613e5b60138361338f565b9150613e6682613e25565b602082019050919050565b60006020820190508181036000830152613e8a81613e4e565b9050919050565b6000613e9c826132f7565b9150613ea7836132f7565b9250817fffffffffffffffffffffffffffffffffffffffffffffffffffffffffffffffff0483118215151615613ee057613edf613d01565b5b828202905092915050565b7f796f75206e656564206d6f726520627564676574000000000000000000000000600082015250565b6000613f2160148361338f565b9150613f2c82613eeb565b602082019050919050565b60006020820190508181036000830152613f5081613f14565b9050919050565b600081905092915050565b50565b6000613f72600083613f57565b9150613f7d82613f62565b600082019050919050565b6000613f9382613f65565b9150819050919050565b7f455243373231456e756d657261626c653a206f776e657220696e646578206f7560008201527f74206f6620626f756e6473000000000000000000000000000000000000000000602082015250565b6000613ff9602b8361338f565b915061400482613f9d565b604082019050919050565b6000602082019050818103600083015261402881613fec565b9050919050565b7f4f776e61626c653a2063616c6c6572206973206e6f7420746865206f776e6572600082015250565b600061406560208361338f565b91506140708261402f565b602082019050919050565b6000602082019050818103600083015261409481614058565b9050919050565b7f455243373231456e756d657261626c653a20676c6f62616c20696e646578206f60008201527f7574206f6620626f756e64730000000000000000000000000000000000000000602082015250565b60006140f7602c8361338f565b91506141028261409b565b604082019050919050565b60006020820190508181036000830152614126816140ea565b9050919050565b7f4552433732313a206f776e657220717565727920666f72206e6f6e657869737460008201527f656e7420746f6b656e0000000000000000000000000000000000000000000000602082015250565b600061418960298361338f565b91506141948261412d565b604082019050919050565b600060208201905081810360008301526141b88161417c565b9050919050565b7f4552433732313a2062616c616e636520717565727920666f7220746865207a6560008201527f726f206164647265737300000000000000000000000000000000000000000000602082015250565b600061421b602a8361338f565b9150614226826141bf565b604082019050919050565b6000602082019050818103600083015261424a8161420e565b9050919050565b7f6e65772070726963652073686f756c642062652067726561746572207468616e60008201527f207a65726f000000000000000000000000000000000000000000000000000000602082015250565b60006142ad60258361338f565b91506142b882614251565b604082019050919050565b600060208201905081810360008301526142dc816142a0565b9050919050565b7f4f776e61626c653a206e6577206f776e657220697320746865207a65726f206160008201527f6464726573730000000000000000000000000000000000000000000000000000602082015250565b600061433f60268361338f565b915061434a826142e3565b604082019050919050565b6000602082019050818103600083015261436e81614332565b9050919050565b7f4552433732313a206f70657261746f7220717565727920666f72206e6f6e657860008201527f697374656e7420746f6b656e0000000000000000000000000000000000000000602082015250565b60006143d1602c8361338f565b91506143dc82614375565b604082019050919050565b60006020820190508181036000830152614400816143c4565b9050919050565b7f4552433732313a207472616e736665722066726f6d20696e636f72726563742060008201527f6f776e6572000000000000000000000000000000000000000000000000000000602082015250565b600061446360258361338f565b915061446e82614407565b604082019050919050565b6000602082019050818103600083015261449281614456565b9050919050565b7f4552433732313a207472616e7366657220746f20746865207a65726f2061646460008201527f7265737300000000000000000000000000000000000000000000000000000000602082015250565b60006144f560248361338f565b915061450082614499565b604082019050919050565b60006020820190508181036000830152614524816144e8565b9050919050565b6000614536826132f7565b9150614541836132f7565b9250827fffffffffffffffffffffffffffffffffffffffffffffffffffffffffffffffff0382111561457657614575613d01565b5b828201905092915050565b7f4552433732313a206d696e7420746f20746865207a65726f2061646472657373600082015250565b60006145b760208361338f565b91506145c282614581565b602082019050919050565b600060208201905081810360008301526145e6816145aa565b9050919050565b7f4552433732313a20746f6b656e20616c7265616479206d696e74656400000000600082015250565b6000614623601c8361338f565b915061462e826145ed565b602082019050919050565b6000602082019050818103600083015261465281614616565b9050919050565b7f45524337323155524953746f726167653a2055524920736574206f66206e6f6e60008201527f6578697374656e7420746f6b656e000000000000000000000000000000000000602082015250565b60006146b5602e8361338f565b91506146c082614659565b604082019050919050565b600060208201905081810360008301526146e4816146a8565b9050919050565b7f4552433732313a20617070726f766520746f2063616c6c657200000000000000600082015250565b600061472160198361338f565b915061472c826146eb565b602082019050919050565b6000602082019050818103600083015261475081614714565b9050919050565b7f4552433732313a207472616e7366657220746f206e6f6e20455243373231526560008201527f63656976657220696d706c656d656e7465720000000000000000000000000000602082015250565b60006147b360328361338f565b91506147be82614757565b604082019050919050565b600060208201905081810360008301526147e2816147a6565b9050919050565b7f45524337323155524953746f726167653a2055524920717565727920666f722060008201527f6e6f6e6578697374656e7420746f6b656e000000000000000000000000000000602082015250565b600061484560318361338f565b9150614850826147e9565b604082019050919050565b6000602082019050818103600083015261487481614838565b9050919050565b600081905092915050565b600061489182613384565b61489b818561487b565b93506148ab8185602086016133a0565b80840191505092915050565b60006148c38285614886565b91506148cf8284614886565b91508190509392505050565b600081519050919050565b600082825260208201905092915050565b6000614902826148db565b61490c81856148e6565b935061491c8185602086016133a0565b614925816133d3565b840191505092915050565b60006080820190506149456000830187613471565b6149526020830186613471565b61495f604083018561335a565b818103606083015261497181846148f7565b905095945050505050565b60008151905061498b81613268565b92915050565b6000602082840312156149a7576149a6613232565b5b60006149b58482850161497c565b91505092915050565b7f4552433732314d657461646174613a2055524920717565727920666f72206e6f60008201527f6e6578697374656e7420746f6b656e0000000000000000000000000000000000602082015250565b6000614a1a602f8361338f565b9150614a25826149be565b604082019050919050565b60006020820190508181036000830152614a4981614a0d565b9050919050565b6000614a5b826132f7565b91507fffffffffffffffffffffffffffffffffffffffffffffffffffffffffffffffff8203614a8d57614a8c613d01565b5b600182019050919050565b7f4e487b7100000000000000000000000000000000000000000000000000000000600052601260045260246000fd5b6000614ad2826132f7565b9150614add836132f7565b925082614aed57614aec614a98565b5b828204905092915050565b6000614b03826132f7565b9150614b0e836132f7565b925082614b1e57614b1d614a98565b5b828206905092915050565b7f4e487b7100000000000000000000000000000000000000000000000000000000600052603160045260246000fdfea2646970667358221220d7f798c28327dd050c6325928e1ec2fc2838111954bc39cdb91749741623b59464736f6c634300080d0033",
  "immutableReferences": {},
  "source": "// SPDX-License-Identifier: MIT\r\npragma solidity ^0.8.7;\r\n\r\nimport \"@openzeppelin/contracts/token/ERC721/ERC721.sol\";\r\nimport \"@openzeppelin/contracts/utils/Counters.sol\";\r\nimport \"@openzeppelin/contracts/access/Ownable.sol\";\r\nimport \"@openzeppelin/contracts/token/ERC721/extensions/ERC721URIStorage.sol\";\r\nimport \"@openzeppelin/contracts/token/ERC721/extensions/ERC721Enumerable.sol\";\r\n\r\ncontract Ako is ERC721URIStorage, Ownable, ERC721Enumerable {\r\n    using Counters for Counters.Counter;\r\n    Counters.Counter private _tokenIds; // unique id   \r\n    \r\n    string [] public akos; // id-1  uri  \r\n    address [] public akos_owners; // id-1  owner   \r\n    uint [] public akos_price; // id-1  price  \r\n    bool [] public akos_approved; // id-1      \r\n\r\n    //\r\n    constructor() ERC721(\"A-KO\", \"AKO\") {}\r\n\r\n    mapping(uint256 => uint256) public costOfTokens; // id    \r\n\r\n    //    \r\n    function _beforeTokenTransfer( \r\n        address from,\r\n        address to,\r\n        uint256 tokenId\r\n    ) internal override(ERC721, ERC721Enumerable) {\r\n        super._beforeTokenTransfer(from, to, tokenId);\r\n    }\r\n\r\n    //    \r\n    function _burn(uint256 tokenId) \r\n        internal\r\n        override(ERC721, ERC721URIStorage)\r\n    {\r\n        super._burn(tokenId);\r\n    }\r\n\r\n    //   \r\n    function supportsInterface(bytes4 interfaceId) \r\n        public\r\n        view\r\n        override(ERC721, ERC721Enumerable)\r\n        returns (bool)\r\n    {\r\n        return super.supportsInterface(interfaceId);\r\n    }\r\n\r\n    // id    URI  \r\n    function tokenURI(uint256 tokenId)\r\n        public\r\n        view\r\n        override(ERC721, ERC721URIStorage)\r\n        returns (string memory)\r\n    {\r\n        return super.tokenURI(tokenId);\r\n    }\r\n\r\n    //  URI     \r\n    function mintToken(string memory _tokenURI)\r\n        public\r\n        onlyOwner\r\n        returns (uint256)\r\n    {\r\n        _tokenIds.increment();\r\n\r\n        uint256 newItemId = _tokenIds.current();\r\n        _mint(_msgSender(), newItemId);\r\n        _setTokenURI(newItemId, _tokenURI);\r\n        akos.push(_tokenURI);\r\n        akos_owners.push(msg.sender);\r\n        akos_price.push(0);\r\n        akos_approved.push(false);\r\n\r\n        return newItemId;\r\n    }\r\n\r\n    //  id       \r\n    function sellToken(uint _id, uint _price)\r\n        public\r\n    {\r\n        require(_exists(_id), \"token is not exist\");\r\n        require(_price>=0, \"price should be greater than zero\");\r\n        address tokenOwner = ownerOf(_id);\r\n        require(tokenOwner==msg.sender, \"you are not token owner\");\r\n        require(getApproved(_id)==address(0), \"you can not buy\"); //    \r\n        _approve(address(this), _id);\r\n        costOfTokens[_id] = _price;\r\n        akos_price[_id-1]=_price;\r\n        akos_approved[_id-1]=true;\r\n    }\r\n\r\n    //     \r\n    function printCost(uint _index) \r\n        public\r\n        view\r\n        returns (uint)\r\n    {\r\n        return costOfTokens[_index];\r\n    }\r\n\r\n    //  id     \r\n    function buyToken(uint _id)\r\n        public\r\n        payable\r\n    {\r\n        require(_exists(_id), \"token is not exist\");\r\n        require(getApproved(_id)!=address(0), \"you can not buy\"); //    \r\n        require(ownerOf(_id)!=msg.sender, \"you are token owner\"); //    \r\n        uint _price = costOfTokens[_id];\r\n        address tokenOwner = ownerOf(_id);\r\n        require(_price*1000000000000000000<=msg.value, \"you need more budget\"); //    \r\n        \r\n        // gas       call \r\n        (bool paid, ) = tokenOwner.call{gas:0, value: _price*1000000000000000000}(\"\");\r\n        payable(msg.sender).transfer(msg.value - _price*1000000000000000000);\r\n        \r\n        /*\r\n        payable(tokenOwner).transfer(_price*1000000000000000000);\r\n        (bool refunded, ) = msg.sender.call{gas:0, value: msg.value - _price*1000000000000000000}(\"\");\r\n        */\r\n        \r\n        _transfer(tokenOwner, msg.sender, _id); //approved  \r\n        costOfTokens[_id] = 0;\r\n        akos_owners[_id-1]=msg.sender;\r\n        akos_price[_id-1]=0;\r\n        akos_approved[_id-1]=false;\r\n    }\r\n\r\n    // id         \r\n    function changePrice(uint _id, uint _newPrice)\r\n        public\r\n    {\r\n        require(_exists(_id), \"token is not exist\");\r\n        require(_newPrice>=0, \"new price should be greater than zero\");\r\n        address tokenOwner = ownerOf(_id);\r\n        require(tokenOwner==msg.sender, \"you are not token owner\");\r\n        require(getApproved(_id)!=address(0), \"you can not buy\"); //    \r\n        costOfTokens[_id] = _newPrice;\r\n        akos_price[_id-1]=_newPrice;\r\n    }\r\n\r\n    //  id     \r\n    function sellCancel(uint _id)\r\n        public\r\n    {\r\n        address tokenOwner = ownerOf(_id);\r\n        require(_exists(_id), \"token is not exist\");\r\n        require(tokenOwner==msg.sender, \"you are not token owner\");\r\n        require(getApproved(_id)!=address(0), \"you can not buy\"); //    \r\n        costOfTokens[_id] = 0;\r\n        _approve(address(0), _id);\r\n        akos_price[_id-1]=0;\r\n        akos_approved[_id-1]=false;\r\n    }\r\n}\r\n",
  "sourcePath": "C:\\Users\\YKB\\Desktop\\AKO_nft-2\\src\\contracts\\Ako.sol",
  "compiler": {
    "name": "solc",
    "version": "0.8.13+commit.abaa5c0e.Emscripten.clang"
  },
  "schemaVersion": "3.4.4",
  "updatedAt": "2022-05-10T09:31:01.629Z",
  "networkType": "ethereum",
  "devdoc": {
    "kind": "dev",
    "methods": {
      "approve(address,uint256)": {
        "details": "See {IERC721-approve}."
      },
      "balanceOf(address)": {
        "details": "See {IERC721-balanceOf}."
      },
      "getApproved(uint256)": {
        "details": "See {IERC721-getApproved}."
      },
      "isApprovedForAll(address,address)": {
        "details": "See {IERC721-isApprovedForAll}."
      },
      "name()": {
        "details": "See {IERC721Metadata-name}."
      },
      "owner()": {
        "details": "Returns the address of the current owner."
      },
      "ownerOf(uint256)": {
        "details": "See {IERC721-ownerOf}."
      },
      "renounceOwnership()": {
        "details": "Leaves the contract without owner. It will not be possible to call `onlyOwner` functions anymore. Can only be called by the current owner. NOTE: Renouncing ownership will leave the contract without an owner, thereby removing any functionality that is only available to the owner."
      },
      "safeTransferFrom(address,address,uint256)": {
        "details": "See {IERC721-safeTransferFrom}."
      },
      "safeTransferFrom(address,address,uint256,bytes)": {
        "details": "See {IERC721-safeTransferFrom}."
      },
      "setApprovalForAll(address,bool)": {
        "details": "See {IERC721-setApprovalForAll}."
      },
      "symbol()": {
        "details": "See {IERC721Metadata-symbol}."
      },
      "tokenByIndex(uint256)": {
        "details": "See {IERC721Enumerable-tokenByIndex}."
      },
      "tokenOfOwnerByIndex(address,uint256)": {
        "details": "See {IERC721Enumerable-tokenOfOwnerByIndex}."
      },
      "totalSupply()": {
        "details": "See {IERC721Enumerable-totalSupply}."
      },
      "transferFrom(address,address,uint256)": {
        "details": "See {IERC721-transferFrom}."
      },
      "transferOwnership(address)": {
        "details": "Transfers ownership of the contract to a new account (`newOwner`). Can only be called by the current owner."
      }
    },
    "version": 1
  },
  "userdoc": {
    "kind": "user",
    "methods": {},
    "version": 1
  }
}