{
  "contractName": "Ako",
  "abi": [
    {
      "inputs": [],
      "stateMutability": "nonpayable",
      "type": "constructor"
    },
    {
      "anonymous": false,
      "inputs": [
        {
          "indexed": true,
          "internalType": "address",
          "name": "owner",
          "type": "address"
        },
        {
          "indexed": true,
          "internalType": "address",
          "name": "approved",
          "type": "address"
        },
        {
          "indexed": true,
          "internalType": "uint256",
          "name": "tokenId",
          "type": "uint256"
        }
      ],
      "name": "Approval",
      "type": "event"
    },
    {
      "anonymous": false,
      "inputs": [
        {
          "indexed": true,
          "internalType": "address",
          "name": "owner",
          "type": "address"
        },
        {
          "indexed": true,
          "internalType": "address",
          "name": "operator",
          "type": "address"
        },
        {
          "indexed": false,
          "internalType": "bool",
          "name": "approved",
          "type": "bool"
        }
      ],
      "name": "ApprovalForAll",
      "type": "event"
    },
    {
      "anonymous": false,
      "inputs": [
        {
          "indexed": true,
          "internalType": "address",
          "name": "previousOwner",
          "type": "address"
        },
        {
          "indexed": true,
          "internalType": "address",
          "name": "newOwner",
          "type": "address"
        }
      ],
      "name": "OwnershipTransferred",
      "type": "event"
    },
    {
      "anonymous": false,
      "inputs": [
        {
          "indexed": true,
          "internalType": "address",
          "name": "from",
          "type": "address"
        },
        {
          "indexed": true,
          "internalType": "address",
          "name": "to",
          "type": "address"
        },
        {
          "indexed": true,
          "internalType": "uint256",
          "name": "tokenId",
          "type": "uint256"
        }
      ],
      "name": "Transfer",
      "type": "event"
    },
    {
      "inputs": [
        {
          "internalType": "address",
          "name": "to",
          "type": "address"
        },
        {
          "internalType": "uint256",
          "name": "tokenId",
          "type": "uint256"
        }
      ],
      "name": "approve",
      "outputs": [],
      "stateMutability": "nonpayable",
      "type": "function"
    },
    {
      "inputs": [
        {
          "internalType": "address",
          "name": "owner",
          "type": "address"
        }
      ],
      "name": "balanceOf",
      "outputs": [
        {
          "internalType": "uint256",
          "name": "",
          "type": "uint256"
        }
      ],
      "stateMutability": "view",
      "type": "function",
      "constant": true
    },
    {
      "inputs": [
        {
          "internalType": "uint256",
          "name": "",
          "type": "uint256"
        }
      ],
      "name": "costOfTokens",
      "outputs": [
        {
          "internalType": "uint256",
          "name": "",
          "type": "uint256"
        }
      ],
      "stateMutability": "view",
      "type": "function",
      "constant": true
    },
    {
      "inputs": [
        {
          "internalType": "uint256",
          "name": "tokenId",
          "type": "uint256"
        }
      ],
      "name": "getApproved",
      "outputs": [
        {
          "internalType": "address",
          "name": "",
          "type": "address"
        }
      ],
      "stateMutability": "view",
      "type": "function",
      "constant": true
    },
    {
      "inputs": [
        {
          "internalType": "address",
          "name": "owner",
          "type": "address"
        },
        {
          "internalType": "address",
          "name": "operator",
          "type": "address"
        }
      ],
      "name": "isApprovedForAll",
      "outputs": [
        {
          "internalType": "bool",
          "name": "",
          "type": "bool"
        }
      ],
      "stateMutability": "view",
      "type": "function",
      "constant": true
    },
    {
      "inputs": [],
      "name": "name",
      "outputs": [
        {
          "internalType": "string",
          "name": "",
          "type": "string"
        }
      ],
      "stateMutability": "view",
      "type": "function",
      "constant": true
    },
    {
      "inputs": [],
      "name": "owner",
      "outputs": [
        {
          "internalType": "address",
          "name": "",
          "type": "address"
        }
      ],
      "stateMutability": "view",
      "type": "function",
      "constant": true
    },
    {
      "inputs": [
        {
          "internalType": "uint256",
          "name": "tokenId",
          "type": "uint256"
        }
      ],
      "name": "ownerOf",
      "outputs": [
        {
          "internalType": "address",
          "name": "",
          "type": "address"
        }
      ],
      "stateMutability": "view",
      "type": "function",
      "constant": true
    },
    {
      "inputs": [],
      "name": "renounceOwnership",
      "outputs": [],
      "stateMutability": "nonpayable",
      "type": "function"
    },
    {
      "inputs": [
        {
          "internalType": "address",
          "name": "from",
          "type": "address"
        },
        {
          "internalType": "address",
          "name": "to",
          "type": "address"
        },
        {
          "internalType": "uint256",
          "name": "tokenId",
          "type": "uint256"
        }
      ],
      "name": "safeTransferFrom",
      "outputs": [],
      "stateMutability": "nonpayable",
      "type": "function"
    },
    {
      "inputs": [
        {
          "internalType": "address",
          "name": "from",
          "type": "address"
        },
        {
          "internalType": "address",
          "name": "to",
          "type": "address"
        },
        {
          "internalType": "uint256",
          "name": "tokenId",
          "type": "uint256"
        },
        {
          "internalType": "bytes",
          "name": "_data",
          "type": "bytes"
        }
      ],
      "name": "safeTransferFrom",
      "outputs": [],
      "stateMutability": "nonpayable",
      "type": "function"
    },
    {
      "inputs": [
        {
          "internalType": "address",
          "name": "operator",
          "type": "address"
        },
        {
          "internalType": "bool",
          "name": "approved",
          "type": "bool"
        }
      ],
      "name": "setApprovalForAll",
      "outputs": [],
      "stateMutability": "nonpayable",
      "type": "function"
    },
    {
      "inputs": [],
      "name": "symbol",
      "outputs": [
        {
          "internalType": "string",
          "name": "",
          "type": "string"
        }
      ],
      "stateMutability": "view",
      "type": "function",
      "constant": true
    },
    {
      "inputs": [
        {
          "internalType": "uint256",
          "name": "index",
          "type": "uint256"
        }
      ],
      "name": "tokenByIndex",
      "outputs": [
        {
          "internalType": "uint256",
          "name": "",
          "type": "uint256"
        }
      ],
      "stateMutability": "view",
      "type": "function",
      "constant": true
    },
    {
      "inputs": [
        {
          "internalType": "address",
          "name": "owner",
          "type": "address"
        },
        {
          "internalType": "uint256",
          "name": "index",
          "type": "uint256"
        }
      ],
      "name": "tokenOfOwnerByIndex",
      "outputs": [
        {
          "internalType": "uint256",
          "name": "",
          "type": "uint256"
        }
      ],
      "stateMutability": "view",
      "type": "function",
      "constant": true
    },
    {
      "inputs": [],
      "name": "totalSupply",
      "outputs": [
        {
          "internalType": "uint256",
          "name": "",
          "type": "uint256"
        }
      ],
      "stateMutability": "view",
      "type": "function",
      "constant": true
    },
    {
      "inputs": [
        {
          "internalType": "address",
          "name": "from",
          "type": "address"
        },
        {
          "internalType": "address",
          "name": "to",
          "type": "address"
        },
        {
          "internalType": "uint256",
          "name": "tokenId",
          "type": "uint256"
        }
      ],
      "name": "transferFrom",
      "outputs": [],
      "stateMutability": "nonpayable",
      "type": "function"
    },
    {
      "inputs": [
        {
          "internalType": "address",
          "name": "newOwner",
          "type": "address"
        }
      ],
      "name": "transferOwnership",
      "outputs": [],
      "stateMutability": "nonpayable",
      "type": "function"
    },
    {
      "inputs": [
        {
          "internalType": "bytes4",
          "name": "interfaceId",
          "type": "bytes4"
        }
      ],
      "name": "supportsInterface",
      "outputs": [
        {
          "internalType": "bool",
          "name": "",
          "type": "bool"
        }
      ],
      "stateMutability": "view",
      "type": "function",
      "constant": true
    },
    {
      "inputs": [
        {
          "internalType": "uint256",
          "name": "tokenId",
          "type": "uint256"
        }
      ],
      "name": "tokenURI",
      "outputs": [
        {
          "internalType": "string",
          "name": "",
          "type": "string"
        }
      ],
      "stateMutability": "view",
      "type": "function",
      "constant": true
    },
    {
      "inputs": [
        {
          "internalType": "string",
          "name": "_tokenURI",
          "type": "string"
        }
      ],
      "name": "mintToken",
      "outputs": [
        {
          "internalType": "uint256",
          "name": "",
          "type": "uint256"
        }
      ],
      "stateMutability": "nonpayable",
      "type": "function"
    },
    {
      "inputs": [
        {
          "internalType": "uint256",
          "name": "_id",
          "type": "uint256"
        },
        {
          "internalType": "uint256",
          "name": "_price",
          "type": "uint256"
        }
      ],
      "name": "sellToken",
      "outputs": [],
      "stateMutability": "nonpayable",
      "type": "function"
    },
    {
      "inputs": [
        {
          "internalType": "uint256",
          "name": "_index",
          "type": "uint256"
        }
      ],
      "name": "printCost",
      "outputs": [
        {
          "internalType": "uint256",
          "name": "",
          "type": "uint256"
        }
      ],
      "stateMutability": "view",
      "type": "function",
      "constant": true
    },
    {
      "inputs": [
        {
          "internalType": "uint256",
          "name": "_id",
          "type": "uint256"
        }
      ],
      "name": "buyToken",
      "outputs": [],
      "stateMutability": "payable",
      "type": "function",
      "payable": true
    },
    {
      "inputs": [
        {
          "internalType": "uint256",
          "name": "_id",
          "type": "uint256"
        },
        {
          "internalType": "uint256",
          "name": "_newPrice",
          "type": "uint256"
        }
      ],
      "name": "changePrice",
      "outputs": [],
      "stateMutability": "nonpayable",
      "type": "function"
    },
    {
      "inputs": [
        {
          "internalType": "uint256",
          "name": "_id",
          "type": "uint256"
        }
      ],
      "name": "sellCancel",
      "outputs": [],
      "stateMutability": "nonpayable",
      "type": "function"
    }
  ],
  "bytecode": "0x60806040523480156200001157600080fd5b506040518060400160405280600481526020017f412d4b4f000000000000000000000000000000000000000000000000000000008152506040518060400160405280600381526020017f414b4f0000000000000000000000000000000000000000000000000000000000815250816000908051906020019062000096929190620001a6565b508060019080519060200190620000af929190620001a6565b505050620000d2620000c6620000d860201b60201c565b620000e060201b60201c565b620002ba565b600033905090565b6000600760009054906101000a900473ffffffffffffffffffffffffffffffffffffffff16905081600760006101000a81548173ffffffffffffffffffffffffffffffffffffffff021916908373ffffffffffffffffffffffffffffffffffffffff1602179055508173ffffffffffffffffffffffffffffffffffffffff168173ffffffffffffffffffffffffffffffffffffffff167f8be0079c531659141344cd1fd0a4f28419497f9722a3daafe3b4186f6b6457e060405160405180910390a35050565b828054620001b49062000285565b90600052602060002090601f016020900481019282620001d8576000855562000224565b82601f10620001f357805160ff191683800117855562000224565b8280016001018555821562000224579182015b828111156200022357825182559160200191906001019062000206565b5b50905062000233919062000237565b5090565b5b808211156200025257600081600090555060010162000238565b5090565b7f4e487b7100000000000000000000000000000000000000000000000000000000600052602260045260246000fd5b600060028204905060018216806200029e57607f821691505b602082108103620002b457620002b362000256565b5b50919050565b61457e80620002ca6000396000f3fe6080604052600436106101815760003560e01c80634f6ccce7116100d157806395d89b411161008a578063b88d4fde11610064578063b88d4fde146105a9578063c87b56dd146105d2578063e985e9c51461060f578063f2fde38b1461064c57610181565b806395d89b411461052c578063a22cb46514610557578063b3de019c1461058057610181565b80634f6ccce7146103f6578063634aa899146104335780636352211e1461047057806370a08231146104ad578063715018a6146104ea5780638da5cb5b1461050157610181565b806323b872dd1161013e5780632f745c59116101185780632f745c591461032a57806333eba49a146103675780633cb26817146103a457806342842e0e146103cd57610181565b806323b872dd146102a85780632b471582146102d15780632d296bf11461030e57610181565b806301ffc9a71461018657806306fdde03146101c3578063081812fc146101ee578063095ea7b31461022b57806318160ddd146102545780631897bcf31461027f575b600080fd5b34801561019257600080fd5b506101ad60048036038101906101a89190612c84565b610675565b6040516101ba9190612ccc565b60405180910390f35b3480156101cf57600080fd5b506101d8610687565b6040516101e59190612d80565b60405180910390f35b3480156101fa57600080fd5b5061021560048036038101906102109190612dd8565b610719565b6040516102229190612e46565b60405180910390f35b34801561023757600080fd5b50610252600480360381019061024d9190612e8d565b61079e565b005b34801561026057600080fd5b506102696108b5565b6040516102769190612edc565b60405180910390f35b34801561028b57600080fd5b506102a660048036038101906102a19190612ef7565b6108c2565b005b3480156102b457600080fd5b506102cf60048036038101906102ca9190612f37565b6109f0565b005b3480156102dd57600080fd5b506102f860048036038101906102f39190612dd8565b610a50565b6040516103059190612edc565b60405180910390f35b61032860048036038101906103239190612dd8565b610a6d565b005b34801561033657600080fd5b50610351600480360381019061034c9190612e8d565b610d2e565b60405161035e9190612edc565b60405180910390f35b34801561037357600080fd5b5061038e600480360381019061038991906130bf565b610dd3565b60405161039b9190612edc565b60405180910390f35b3480156103b057600080fd5b506103cb60048036038101906103c69190612dd8565b610e8d565b005b3480156103d957600080fd5b506103f460048036038101906103ef9190612f37565b610fef565b005b34801561040257600080fd5b5061041d60048036038101906104189190612dd8565b61100f565b60405161042a9190612edc565b60405180910390f35b34801561043f57600080fd5b5061045a60048036038101906104559190612dd8565b611080565b6040516104679190612edc565b60405180910390f35b34801561047c57600080fd5b5061049760048036038101906104929190612dd8565b611098565b6040516104a49190612e46565b60405180910390f35b3480156104b957600080fd5b506104d460048036038101906104cf9190613108565b611149565b6040516104e19190612edc565b60405180910390f35b3480156104f657600080fd5b506104ff611200565b005b34801561050d57600080fd5b50610516611288565b6040516105239190612e46565b60405180910390f35b34801561053857600080fd5b506105416112b2565b60405161054e9190612d80565b60405180910390f35b34801561056357600080fd5b5061057e60048036038101906105799190613161565b611344565b005b34801561058c57600080fd5b506105a760048036038101906105a29190612ef7565b61135a565b005b3480156105b557600080fd5b506105d060048036038101906105cb9190613242565b6114f5565b005b3480156105de57600080fd5b506105f960048036038101906105f49190612dd8565b611557565b6040516106069190612d80565b60405180910390f35b34801561061b57600080fd5b50610636600480360381019061063191906132c5565b611569565b6040516106439190612ccc565b60405180910390f35b34801561065857600080fd5b50610673600480360381019061066e9190613108565b6115fd565b005b6000610680826116f4565b9050919050565b60606000805461069690613334565b80601f01602080910402602001604051908101604052809291908181526020018280546106c290613334565b801561070f5780601f106106e45761010080835404028352916020019161070f565b820191906000526020600020905b8154815290600101906020018083116106f257829003601f168201915b5050505050905090565b60006107248261176e565b610763576040517f08c379a000000000000000000000000000000000000000000000000000000000815260040161075a906133d7565b60405180910390fd5b6004600083815260200190815260200160002060009054906101000a900473ffffffffffffffffffffffffffffffffffffffff169050919050565b60006107a982611098565b90508073ffffffffffffffffffffffffffffffffffffffff168373ffffffffffffffffffffffffffffffffffffffff1603610819576040517f08c379a000000000000000000000000000000000000000000000000000000000815260040161081090613469565b60405180910390fd5b8073ffffffffffffffffffffffffffffffffffffffff166108386117da565b73ffffffffffffffffffffffffffffffffffffffff1614806108675750610866816108616117da565b611569565b5b6108a6576040517f08c379a000000000000000000000000000000000000000000000000000000000815260040161089d906134fb565b60405180910390fd5b6108b083836117e2565b505050565b6000600a80549050905090565b6108cb8261176e565b61090a576040517f08c379a000000000000000000000000000000000000000000000000000000000815260040161090190613567565b60405180910390fd5b600081101561094e576040517f08c379a0000000000000000000000000000000000000000000000000000000008152600401610945906135f9565b60405180910390fd5b600061095983611098565b90503373ffffffffffffffffffffffffffffffffffffffff168173ffffffffffffffffffffffffffffffffffffffff16146109c9576040517f08c379a00000000000000000000000000000000000000000000000000000000081526004016109c090613665565b60405180910390fd5b6109d330846117e2565b81600d600085815260200190815260200160002081905550505050565b610a016109fb6117da565b8261189b565b610a40576040517f08c379a0000000000000000000000000000000000000000000000000000000008152600401610a37906136f7565b60405180910390fd5b610a4b838383611979565b505050565b6000600d6000838152602001908152602001600020549050919050565b610a768161176e565b610ab5576040517f08c379a0000000000000000000000000000000000000000000000000000000008152600401610aac90613567565b60405180910390fd5b600073ffffffffffffffffffffffffffffffffffffffff16610ad682610719565b73ffffffffffffffffffffffffffffffffffffffff1603610b2c576040517f08c379a0000000000000000000000000000000000000000000000000000000008152600401610b2390613763565b60405180910390fd5b3373ffffffffffffffffffffffffffffffffffffffff16610b4c82611098565b73ffffffffffffffffffffffffffffffffffffffff1603610ba2576040517f08c379a0000000000000000000000000000000000000000000000000000000008152600401610b99906137cf565b60405180910390fd5b6000600d60008381526020019081526020016000205490506000610bc583611098565b905034670de0b6b3a764000083610bdc919061381e565b1115610c1d576040517f08c379a0000000000000000000000000000000000000000000000000000000008152600401610c14906138c4565b60405180910390fd5b60008173ffffffffffffffffffffffffffffffffffffffff166000670de0b6b3a764000085610c4c919061381e565b604051610c5890613915565b600060405180830381858888f193505050503d8060008114610c96576040519150601f19603f3d011682016040523d82523d6000602084013e610c9b565b606091505b505090503373ffffffffffffffffffffffffffffffffffffffff166108fc670de0b6b3a764000085610ccd919061381e565b34610cd8919061392a565b9081150290604051600060405180830381858888f19350505050158015610d03573d6000803e3d6000fd5b50610d0f823386611979565b6000600d60008681526020019081526020016000208190555050505050565b6000610d3983611149565b8210610d7a576040517f08c379a0000000000000000000000000000000000000000000000000000000008152600401610d71906139d0565b60405180910390fd5b600860008473ffffffffffffffffffffffffffffffffffffffff1673ffffffffffffffffffffffffffffffffffffffff168152602001908152602001600020600083815260200190815260200160002054905092915050565b6000610ddd6117da565b73ffffffffffffffffffffffffffffffffffffffff16610dfb611288565b73ffffffffffffffffffffffffffffffffffffffff1614610e51576040517f08c379a0000000000000000000000000000000000000000000000000000000008152600401610e4890613a3c565b60405180910390fd5b610e5b600c611bdf565b6000610e67600c611bf5565b9050610e7a610e746117da565b82611c03565b610e848184611ddc565b80915050919050565b6000610e9882611098565b9050610ea38261176e565b610ee2576040517f08c379a0000000000000000000000000000000000000000000000000000000008152600401610ed990613567565b60405180910390fd5b3373ffffffffffffffffffffffffffffffffffffffff168173ffffffffffffffffffffffffffffffffffffffff1614610f50576040517f08c379a0000000000000000000000000000000000000000000000000000000008152600401610f4790613665565b60405180910390fd5b600073ffffffffffffffffffffffffffffffffffffffff16610f7183610719565b73ffffffffffffffffffffffffffffffffffffffff1603610fc7576040517f08c379a0000000000000000000000000000000000000000000000000000000008152600401610fbe90613763565b60405180910390fd5b6000600d600084815260200190815260200160002081905550610feb6000836117e2565b5050565b61100a838383604051806020016040528060008152506114f5565b505050565b60006110196108b5565b821061105a576040517f08c379a000000000000000000000000000000000000000000000000000000000815260040161105190613ace565b60405180910390fd5b600a828154811061106e5761106d613aee565b5b90600052602060002001549050919050565b600d6020528060005260406000206000915090505481565b6000806002600084815260200190815260200160002060009054906101000a900473ffffffffffffffffffffffffffffffffffffffff169050600073ffffffffffffffffffffffffffffffffffffffff168173ffffffffffffffffffffffffffffffffffffffff1603611140576040517f08c379a000000000000000000000000000000000000000000000000000000000815260040161113790613b8f565b60405180910390fd5b80915050919050565b60008073ffffffffffffffffffffffffffffffffffffffff168273ffffffffffffffffffffffffffffffffffffffff16036111b9576040517f08c379a00000000000000000000000000000000000000000000000000000000081526004016111b090613c21565b60405180910390fd5b600360008373ffffffffffffffffffffffffffffffffffffffff1673ffffffffffffffffffffffffffffffffffffffff168152602001908152602001600020549050919050565b6112086117da565b73ffffffffffffffffffffffffffffffffffffffff16611226611288565b73ffffffffffffffffffffffffffffffffffffffff161461127c576040517f08c379a000000000000000000000000000000000000000000000000000000000815260040161127390613a3c565b60405180910390fd5b6112866000611e50565b565b6000600760009054906101000a900473ffffffffffffffffffffffffffffffffffffffff16905090565b6060600180546112c190613334565b80601f01602080910402602001604051908101604052809291908181526020018280546112ed90613334565b801561133a5780601f1061130f5761010080835404028352916020019161133a565b820191906000526020600020905b81548152906001019060200180831161131d57829003601f168201915b5050505050905090565b61135661134f6117da565b8383611f16565b5050565b6113638261176e565b6113a2576040517f08c379a000000000000000000000000000000000000000000000000000000000815260040161139990613567565b60405180910390fd5b60008110156113e6576040517f08c379a00000000000000000000000000000000000000000000000000000000081526004016113dd90613cb3565b60405180910390fd5b60006113f183611098565b90503373ffffffffffffffffffffffffffffffffffffffff168173ffffffffffffffffffffffffffffffffffffffff1614611461576040517f08c379a000000000000000000000000000000000000000000000000000000000815260040161145890613665565b60405180910390fd5b600073ffffffffffffffffffffffffffffffffffffffff1661148284610719565b73ffffffffffffffffffffffffffffffffffffffff16036114d8576040517f08c379a00000000000000000000000000000000000000000000000000000000081526004016114cf90613763565b60405180910390fd5b81600d600085815260200190815260200160002081905550505050565b6115066115006117da565b8361189b565b611545576040517f08c379a000000000000000000000000000000000000000000000000000000000815260040161153c906136f7565b60405180910390fd5b61155184848484612082565b50505050565b6060611562826120de565b9050919050565b6000600560008473ffffffffffffffffffffffffffffffffffffffff1673ffffffffffffffffffffffffffffffffffffffff16815260200190815260200160002060008373ffffffffffffffffffffffffffffffffffffffff1673ffffffffffffffffffffffffffffffffffffffff16815260200190815260200160002060009054906101000a900460ff16905092915050565b6116056117da565b73ffffffffffffffffffffffffffffffffffffffff16611623611288565b73ffffffffffffffffffffffffffffffffffffffff1614611679576040517f08c379a000000000000000000000000000000000000000000000000000000000815260040161167090613a3c565b60405180910390fd5b600073ffffffffffffffffffffffffffffffffffffffff168173ffffffffffffffffffffffffffffffffffffffff16036116e8576040517f08c379a00000000000000000000000000000000000000000000000000000000081526004016116df90613d45565b60405180910390fd5b6116f181611e50565b50565b60007f780e9d63000000000000000000000000000000000000000000000000000000007bffffffffffffffffffffffffffffffffffffffffffffffffffffffff1916827bffffffffffffffffffffffffffffffffffffffffffffffffffffffff1916148061176757506117668261222f565b5b9050919050565b60008073ffffffffffffffffffffffffffffffffffffffff166002600084815260200190815260200160002060009054906101000a900473ffffffffffffffffffffffffffffffffffffffff1673ffffffffffffffffffffffffffffffffffffffff1614159050919050565b600033905090565b816004600083815260200190815260200160002060006101000a81548173ffffffffffffffffffffffffffffffffffffffff021916908373ffffffffffffffffffffffffffffffffffffffff160217905550808273ffffffffffffffffffffffffffffffffffffffff1661185583611098565b73ffffffffffffffffffffffffffffffffffffffff167f8c5be1e5ebec7d5bd14f71427d1e84f3dd0314c0f7b2291e5b200ac8c7c3b92560405160405180910390a45050565b60006118a68261176e565b6118e5576040517f08c379a00000000000000000000000000000000000000000000000000000000081526004016118dc90613dd7565b60405180910390fd5b60006118f083611098565b90508073ffffffffffffffffffffffffffffffffffffffff168473ffffffffffffffffffffffffffffffffffffffff16148061195f57508373ffffffffffffffffffffffffffffffffffffffff1661194784610719565b73ffffffffffffffffffffffffffffffffffffffff16145b80611970575061196f8185611569565b5b91505092915050565b8273ffffffffffffffffffffffffffffffffffffffff1661199982611098565b73ffffffffffffffffffffffffffffffffffffffff16146119ef576040517f08c379a00000000000000000000000000000000000000000000000000000000081526004016119e690613e69565b60405180910390fd5b600073ffffffffffffffffffffffffffffffffffffffff168273ffffffffffffffffffffffffffffffffffffffff1603611a5e576040517f08c379a0000000000000000000000000000000000000000000000000000000008152600401611a5590613efb565b60405180910390fd5b611a69838383612311565b611a746000826117e2565b6001600360008573ffffffffffffffffffffffffffffffffffffffff1673ffffffffffffffffffffffffffffffffffffffff1681526020019081526020016000206000828254611ac4919061392a565b925050819055506001600360008473ffffffffffffffffffffffffffffffffffffffff1673ffffffffffffffffffffffffffffffffffffffff1681526020019081526020016000206000828254611b1b9190613f1b565b92505081905550816002600083815260200190815260200160002060006101000a81548173ffffffffffffffffffffffffffffffffffffffff021916908373ffffffffffffffffffffffffffffffffffffffff160217905550808273ffffffffffffffffffffffffffffffffffffffff168473ffffffffffffffffffffffffffffffffffffffff167fddf252ad1be2c89b69c2b068fc378daa952ba7f163c4a11628f55a4df523b3ef60405160405180910390a4611bda838383612321565b505050565b6001816000016000828254019250508190555050565b600081600001549050919050565b600073ffffffffffffffffffffffffffffffffffffffff168273ffffffffffffffffffffffffffffffffffffffff1603611c72576040517f08c379a0000000000000000000000000000000000000000000000000000000008152600401611c6990613fbd565b60405180910390fd5b611c7b8161176e565b15611cbb576040517f08c379a0000000000000000000000000000000000000000000000000000000008152600401611cb290614029565b60405180910390fd5b611cc760008383612311565b6001600360008473ffffffffffffffffffffffffffffffffffffffff1673ffffffffffffffffffffffffffffffffffffffff1681526020019081526020016000206000828254611d179190613f1b565b92505081905550816002600083815260200190815260200160002060006101000a81548173ffffffffffffffffffffffffffffffffffffffff021916908373ffffffffffffffffffffffffffffffffffffffff160217905550808273ffffffffffffffffffffffffffffffffffffffff16600073ffffffffffffffffffffffffffffffffffffffff167fddf252ad1be2c89b69c2b068fc378daa952ba7f163c4a11628f55a4df523b3ef60405160405180910390a4611dd860008383612321565b5050565b611de58261176e565b611e24576040517f08c379a0000000000000000000000000000000000000000000000000000000008152600401611e1b906140bb565b60405180910390fd5b80600660008481526020019081526020016000209080519060200190611e4b929190612b75565b505050565b6000600760009054906101000a900473ffffffffffffffffffffffffffffffffffffffff16905081600760006101000a81548173ffffffffffffffffffffffffffffffffffffffff021916908373ffffffffffffffffffffffffffffffffffffffff1602179055508173ffffffffffffffffffffffffffffffffffffffff168173ffffffffffffffffffffffffffffffffffffffff167f8be0079c531659141344cd1fd0a4f28419497f9722a3daafe3b4186f6b6457e060405160405180910390a35050565b8173ffffffffffffffffffffffffffffffffffffffff168373ffffffffffffffffffffffffffffffffffffffff1603611f84576040517f08c379a0000000000000000000000000000000000000000000000000000000008152600401611f7b90614127565b60405180910390fd5b80600560008573ffffffffffffffffffffffffffffffffffffffff1673ffffffffffffffffffffffffffffffffffffffff16815260200190815260200160002060008473ffffffffffffffffffffffffffffffffffffffff1673ffffffffffffffffffffffffffffffffffffffff16815260200190815260200160002060006101000a81548160ff0219169083151502179055508173ffffffffffffffffffffffffffffffffffffffff168373ffffffffffffffffffffffffffffffffffffffff167f17307eab39ab6107e8899845ad3d59bd9653f200f220920489ca2b5937696c31836040516120759190612ccc565b60405180910390a3505050565b61208d848484611979565b61209984848484612326565b6120d8576040517f08c379a00000000000000000000000000000000000000000000000000000000081526004016120cf906141b9565b60405180910390fd5b50505050565b60606120e98261176e565b612128576040517f08c379a000000000000000000000000000000000000000000000000000000000815260040161211f9061424b565b60405180910390fd5b600060066000848152602001908152602001600020805461214890613334565b80601f016020809104026020016040519081016040528092919081815260200182805461217490613334565b80156121c15780601f10612196576101008083540402835291602001916121c1565b820191906000526020600020905b8154815290600101906020018083116121a457829003601f168201915b5050505050905060006121d26124ad565b905060008151036121e757819250505061222a565b60008251111561221c5780826040516020016122049291906142a7565b6040516020818303038152906040529250505061222a565b612225846124c4565b925050505b919050565b60007f80ac58cd000000000000000000000000000000000000000000000000000000007bffffffffffffffffffffffffffffffffffffffffffffffffffffffff1916827bffffffffffffffffffffffffffffffffffffffffffffffffffffffff191614806122fa57507f5b5e139f000000000000000000000000000000000000000000000000000000007bffffffffffffffffffffffffffffffffffffffffffffffffffffffff1916827bffffffffffffffffffffffffffffffffffffffffffffffffffffffff1916145b8061230a57506123098261256b565b5b9050919050565b61231c8383836125d5565b505050565b505050565b60006123478473ffffffffffffffffffffffffffffffffffffffff166126e7565b156124a0578373ffffffffffffffffffffffffffffffffffffffff1663150b7a026123706117da565b8786866040518563ffffffff1660e01b81526004016123929493929190614320565b6020604051808303816000875af19250505080156123ce57506040513d601f19601f820116820180604052508101906123cb9190614381565b60015b612450573d80600081146123fe576040519150601f19603f3d011682016040523d82523d6000602084013e612403565b606091505b506000815103612448576040517f08c379a000000000000000000000000000000000000000000000000000000000815260040161243f906141b9565b60405180910390fd5b805181602001fd5b63150b7a0260e01b7bffffffffffffffffffffffffffffffffffffffffffffffffffffffff1916817bffffffffffffffffffffffffffffffffffffffffffffffffffffffff1916149150506124a5565b600190505b949350505050565b606060405180602001604052806000815250905090565b60606124cf8261176e565b61250e576040517f08c379a000000000000000000000000000000000000000000000000000000000815260040161250590614420565b60405180910390fd5b60006125186124ad565b905060008151116125385760405180602001604052806000815250612563565b806125428461270a565b6040516020016125539291906142a7565b6040516020818303038152906040525b915050919050565b60007f01ffc9a7000000000000000000000000000000000000000000000000000000007bffffffffffffffffffffffffffffffffffffffffffffffffffffffff1916827bffffffffffffffffffffffffffffffffffffffffffffffffffffffff1916149050919050565b6125e083838361286a565b600073ffffffffffffffffffffffffffffffffffffffff168373ffffffffffffffffffffffffffffffffffffffff16036126225761261d8161286f565b612661565b8173ffffffffffffffffffffffffffffffffffffffff168373ffffffffffffffffffffffffffffffffffffffff16146126605761265f83826128b8565b5b5b600073ffffffffffffffffffffffffffffffffffffffff168273ffffffffffffffffffffffffffffffffffffffff16036126a35761269e81612a25565b6126e2565b8273ffffffffffffffffffffffffffffffffffffffff168273ffffffffffffffffffffffffffffffffffffffff16146126e1576126e08282612af6565b5b5b505050565b6000808273ffffffffffffffffffffffffffffffffffffffff163b119050919050565b606060008203612751576040518060400160405280600181526020017f30000000000000000000000000000000000000000000000000000000000000008152509050612865565b600082905060005b6000821461278357808061276c90614440565b915050600a8261277c91906144b7565b9150612759565b60008167ffffffffffffffff81111561279f5761279e612f94565b5b6040519080825280601f01601f1916602001820160405280156127d15781602001600182028036833780820191505090505b5090505b6000851461285e576001826127ea919061392a565b9150600a856127f991906144e8565b60306128059190613f1b565b60f81b81838151811061281b5761281a613aee565b5b60200101907effffffffffffffffffffffffffffffffffffffffffffffffffffffffffffff1916908160001a905350600a8561285791906144b7565b94506127d5565b8093505050505b919050565b505050565b600a80549050600b600083815260200190815260200160002081905550600a81908060018154018082558091505060019003906000526020600020016000909190919091505550565b600060016128c584611149565b6128cf919061392a565b90506000600960008481526020019081526020016000205490508181146129b4576000600860008673ffffffffffffffffffffffffffffffffffffffff1673ffffffffffffffffffffffffffffffffffffffff168152602001908152602001600020600084815260200190815260200160002054905080600860008773ffffffffffffffffffffffffffffffffffffffff1673ffffffffffffffffffffffffffffffffffffffff168152602001908152602001600020600084815260200190815260200160002081905550816009600083815260200190815260200160002081905550505b6009600084815260200190815260200160002060009055600860008573ffffffffffffffffffffffffffffffffffffffff1673ffffffffffffffffffffffffffffffffffffffff16815260200190815260200160002060008381526020019081526020016000206000905550505050565b60006001600a80549050612a39919061392a565b90506000600b60008481526020019081526020016000205490506000600a8381548110612a6957612a68613aee565b5b9060005260206000200154905080600a8381548110612a8b57612a8a613aee565b5b906000526020600020018190555081600b600083815260200190815260200160002081905550600b600085815260200190815260200160002060009055600a805480612ada57612ad9614519565b5b6001900381819060005260206000200160009055905550505050565b6000612b0183611149565b905081600860008573ffffffffffffffffffffffffffffffffffffffff1673ffffffffffffffffffffffffffffffffffffffff168152602001908152602001600020600083815260200190815260200160002081905550806009600084815260200190815260200160002081905550505050565b828054612b8190613334565b90600052602060002090601f016020900481019282612ba35760008555612bea565b82601f10612bbc57805160ff1916838001178555612bea565b82800160010185558215612bea579182015b82811115612be9578251825591602001919060010190612bce565b5b509050612bf79190612bfb565b5090565b5b80821115612c14576000816000905550600101612bfc565b5090565b6000604051905090565b600080fd5b600080fd5b60007fffffffff0000000000000000000000000000000000000000000000000000000082169050919050565b612c6181612c2c565b8114612c6c57600080fd5b50565b600081359050612c7e81612c58565b92915050565b600060208284031215612c9a57612c99612c22565b5b6000612ca884828501612c6f565b91505092915050565b60008115159050919050565b612cc681612cb1565b82525050565b6000602082019050612ce16000830184612cbd565b92915050565b600081519050919050565b600082825260208201905092915050565b60005b83811015612d21578082015181840152602081019050612d06565b83811115612d30576000848401525b50505050565b6000601f19601f8301169050919050565b6000612d5282612ce7565b612d5c8185612cf2565b9350612d6c818560208601612d03565b612d7581612d36565b840191505092915050565b60006020820190508181036000830152612d9a8184612d47565b905092915050565b6000819050919050565b612db581612da2565b8114612dc057600080fd5b50565b600081359050612dd281612dac565b92915050565b600060208284031215612dee57612ded612c22565b5b6000612dfc84828501612dc3565b91505092915050565b600073ffffffffffffffffffffffffffffffffffffffff82169050919050565b6000612e3082612e05565b9050919050565b612e4081612e25565b82525050565b6000602082019050612e5b6000830184612e37565b92915050565b612e6a81612e25565b8114612e7557600080fd5b50565b600081359050612e8781612e61565b92915050565b60008060408385031215612ea457612ea3612c22565b5b6000612eb285828601612e78565b9250506020612ec385828601612dc3565b9150509250929050565b612ed681612da2565b82525050565b6000602082019050612ef16000830184612ecd565b92915050565b60008060408385031215612f0e57612f0d612c22565b5b6000612f1c85828601612dc3565b9250506020612f2d85828601612dc3565b9150509250929050565b600080600060608486031215612f5057612f4f612c22565b5b6000612f5e86828701612e78565b9350506020612f6f86828701612e78565b9250506040612f8086828701612dc3565b9150509250925092565b600080fd5b600080fd5b7f4e487b7100000000000000000000000000000000000000000000000000000000600052604160045260246000fd5b612fcc82612d36565b810181811067ffffffffffffffff82111715612feb57612fea612f94565b5b80604052505050565b6000612ffe612c18565b905061300a8282612fc3565b919050565b600067ffffffffffffffff82111561302a57613029612f94565b5b61303382612d36565b9050602081019050919050565b82818337600083830152505050565b600061306261305d8461300f565b612ff4565b90508281526020810184848401111561307e5761307d612f8f565b5b613089848285613040565b509392505050565b600082601f8301126130a6576130a5612f8a565b5b81356130b684826020860161304f565b91505092915050565b6000602082840312156130d5576130d4612c22565b5b600082013567ffffffffffffffff8111156130f3576130f2612c27565b5b6130ff84828501613091565b91505092915050565b60006020828403121561311e5761311d612c22565b5b600061312c84828501612e78565b91505092915050565b61313e81612cb1565b811461314957600080fd5b50565b60008135905061315b81613135565b92915050565b6000806040838503121561317857613177612c22565b5b600061318685828601612e78565b92505060206131978582860161314c565b9150509250929050565b600067ffffffffffffffff8211156131bc576131bb612f94565b5b6131c582612d36565b9050602081019050919050565b60006131e56131e0846131a1565b612ff4565b90508281526020810184848401111561320157613200612f8f565b5b61320c848285613040565b509392505050565b600082601f83011261322957613228612f8a565b5b81356132398482602086016131d2565b91505092915050565b6000806000806080858703121561325c5761325b612c22565b5b600061326a87828801612e78565b945050602061327b87828801612e78565b935050604061328c87828801612dc3565b925050606085013567ffffffffffffffff8111156132ad576132ac612c27565b5b6132b987828801613214565b91505092959194509250565b600080604083850312156132dc576132db612c22565b5b60006132ea85828601612e78565b92505060206132fb85828601612e78565b9150509250929050565b7f4e487b7100000000000000000000000000000000000000000000000000000000600052602260045260246000fd5b6000600282049050600182168061334c57607f821691505b60208210810361335f5761335e613305565b5b50919050565b7f4552433732313a20617070726f76656420717565727920666f72206e6f6e657860008201527f697374656e7420746f6b656e0000000000000000000000000000000000000000602082015250565b60006133c1602c83612cf2565b91506133cc82613365565b604082019050919050565b600060208201905081810360008301526133f0816133b4565b9050919050565b7f4552433732313a20617070726f76616c20746f2063757272656e74206f776e6560008201527f7200000000000000000000000000000000000000000000000000000000000000602082015250565b6000613453602183612cf2565b915061345e826133f7565b604082019050919050565b6000602082019050818103600083015261348281613446565b9050919050565b7f4552433732313a20617070726f76652063616c6c6572206973206e6f74206f7760008201527f6e6572206e6f7220617070726f76656420666f7220616c6c0000000000000000602082015250565b60006134e5603883612cf2565b91506134f082613489565b604082019050919050565b60006020820190508181036000830152613514816134d8565b9050919050565b7f746f6b656e206973206e6f742065786973740000000000000000000000000000600082015250565b6000613551601283612cf2565b915061355c8261351b565b602082019050919050565b6000602082019050818103600083015261358081613544565b9050919050565b7f70726963652073686f756c642062652067726561746572207468616e207a657260008201527f6f00000000000000000000000000000000000000000000000000000000000000602082015250565b60006135e3602183612cf2565b91506135ee82613587565b604082019050919050565b60006020820190508181036000830152613612816135d6565b9050919050565b7f796f7520617265206e6f7420746f6b656e206f776e6572000000000000000000600082015250565b600061364f601783612cf2565b915061365a82613619565b602082019050919050565b6000602082019050818103600083015261367e81613642565b9050919050565b7f4552433732313a207472616e736665722063616c6c6572206973206e6f74206f60008201527f776e6572206e6f7220617070726f766564000000000000000000000000000000602082015250565b60006136e1603183612cf2565b91506136ec82613685565b604082019050919050565b60006020820190508181036000830152613710816136d4565b9050919050565b7f796f752063616e206e6f74206275790000000000000000000000000000000000600082015250565b600061374d600f83612cf2565b915061375882613717565b602082019050919050565b6000602082019050818103600083015261377c81613740565b9050919050565b7f796f752061726520746f6b656e206f776e657200000000000000000000000000600082015250565b60006137b9601383612cf2565b91506137c482613783565b602082019050919050565b600060208201905081810360008301526137e8816137ac565b9050919050565b7f4e487b7100000000000000000000000000000000000000000000000000000000600052601160045260246000fd5b600061382982612da2565b915061383483612da2565b9250817fffffffffffffffffffffffffffffffffffffffffffffffffffffffffffffffff048311821515161561386d5761386c6137ef565b5b828202905092915050565b7f796f75206e656564206d6f726520627564676574000000000000000000000000600082015250565b60006138ae601483612cf2565b91506138b982613878565b602082019050919050565b600060208201905081810360008301526138dd816138a1565b9050919050565b600081905092915050565b50565b60006138ff6000836138e4565b915061390a826138ef565b600082019050919050565b6000613920826138f2565b9150819050919050565b600061393582612da2565b915061394083612da2565b925082821015613953576139526137ef565b5b828203905092915050565b7f455243373231456e756d657261626c653a206f776e657220696e646578206f7560008201527f74206f6620626f756e6473000000000000000000000000000000000000000000602082015250565b60006139ba602b83612cf2565b91506139c58261395e565b604082019050919050565b600060208201905081810360008301526139e9816139ad565b9050919050565b7f4f776e61626c653a2063616c6c6572206973206e6f7420746865206f776e6572600082015250565b6000613a26602083612cf2565b9150613a31826139f0565b602082019050919050565b60006020820190508181036000830152613a5581613a19565b9050919050565b7f455243373231456e756d657261626c653a20676c6f62616c20696e646578206f60008201527f7574206f6620626f756e64730000000000000000000000000000000000000000602082015250565b6000613ab8602c83612cf2565b9150613ac382613a5c565b604082019050919050565b60006020820190508181036000830152613ae781613aab565b9050919050565b7f4e487b7100000000000000000000000000000000000000000000000000000000600052603260045260246000fd5b7f4552433732313a206f776e657220717565727920666f72206e6f6e657869737460008201527f656e7420746f6b656e0000000000000000000000000000000000000000000000602082015250565b6000613b79602983612cf2565b9150613b8482613b1d565b604082019050919050565b60006020820190508181036000830152613ba881613b6c565b9050919050565b7f4552433732313a2062616c616e636520717565727920666f7220746865207a6560008201527f726f206164647265737300000000000000000000000000000000000000000000602082015250565b6000613c0b602a83612cf2565b9150613c1682613baf565b604082019050919050565b60006020820190508181036000830152613c3a81613bfe565b9050919050565b7f6e65772070726963652073686f756c642062652067726561746572207468616e60008201527f207a65726f000000000000000000000000000000000000000000000000000000602082015250565b6000613c9d602583612cf2565b9150613ca882613c41565b604082019050919050565b60006020820190508181036000830152613ccc81613c90565b9050919050565b7f4f776e61626c653a206e6577206f776e657220697320746865207a65726f206160008201527f6464726573730000000000000000000000000000000000000000000000000000602082015250565b6000613d2f602683612cf2565b9150613d3a82613cd3565b604082019050919050565b60006020820190508181036000830152613d5e81613d22565b9050919050565b7f4552433732313a206f70657261746f7220717565727920666f72206e6f6e657860008201527f697374656e7420746f6b656e0000000000000000000000000000000000000000602082015250565b6000613dc1602c83612cf2565b9150613dcc82613d65565b604082019050919050565b60006020820190508181036000830152613df081613db4565b9050919050565b7f4552433732313a207472616e736665722066726f6d20696e636f72726563742060008201527f6f776e6572000000000000000000000000000000000000000000000000000000602082015250565b6000613e53602583612cf2565b9150613e5e82613df7565b604082019050919050565b60006020820190508181036000830152613e8281613e46565b9050919050565b7f4552433732313a207472616e7366657220746f20746865207a65726f2061646460008201527f7265737300000000000000000000000000000000000000000000000000000000602082015250565b6000613ee5602483612cf2565b9150613ef082613e89565b604082019050919050565b60006020820190508181036000830152613f1481613ed8565b9050919050565b6000613f2682612da2565b9150613f3183612da2565b9250827fffffffffffffffffffffffffffffffffffffffffffffffffffffffffffffffff03821115613f6657613f656137ef565b5b828201905092915050565b7f4552433732313a206d696e7420746f20746865207a65726f2061646472657373600082015250565b6000613fa7602083612cf2565b9150613fb282613f71565b602082019050919050565b60006020820190508181036000830152613fd681613f9a565b9050919050565b7f4552433732313a20746f6b656e20616c7265616479206d696e74656400000000600082015250565b6000614013601c83612cf2565b915061401e82613fdd565b602082019050919050565b6000602082019050818103600083015261404281614006565b9050919050565b7f45524337323155524953746f726167653a2055524920736574206f66206e6f6e60008201527f6578697374656e7420746f6b656e000000000000000000000000000000000000602082015250565b60006140a5602e83612cf2565b91506140b082614049565b604082019050919050565b600060208201905081810360008301526140d481614098565b9050919050565b7f4552433732313a20617070726f766520746f2063616c6c657200000000000000600082015250565b6000614111601983612cf2565b915061411c826140db565b602082019050919050565b6000602082019050818103600083015261414081614104565b9050919050565b7f4552433732313a207472616e7366657220746f206e6f6e20455243373231526560008201527f63656976657220696d706c656d656e7465720000000000000000000000000000602082015250565b60006141a3603283612cf2565b91506141ae82614147565b604082019050919050565b600060208201905081810360008301526141d281614196565b9050919050565b7f45524337323155524953746f726167653a2055524920717565727920666f722060008201527f6e6f6e6578697374656e7420746f6b656e000000000000000000000000000000602082015250565b6000614235603183612cf2565b9150614240826141d9565b604082019050919050565b6000602082019050818103600083015261426481614228565b9050919050565b600081905092915050565b600061428182612ce7565b61428b818561426b565b935061429b818560208601612d03565b80840191505092915050565b60006142b38285614276565b91506142bf8284614276565b91508190509392505050565b600081519050919050565b600082825260208201905092915050565b60006142f2826142cb565b6142fc81856142d6565b935061430c818560208601612d03565b61431581612d36565b840191505092915050565b60006080820190506143356000830187612e37565b6143426020830186612e37565b61434f6040830185612ecd565b818103606083015261436181846142e7565b905095945050505050565b60008151905061437b81612c58565b92915050565b60006020828403121561439757614396612c22565b5b60006143a58482850161436c565b91505092915050565b7f4552433732314d657461646174613a2055524920717565727920666f72206e6f60008201527f6e6578697374656e7420746f6b656e0000000000000000000000000000000000602082015250565b600061440a602f83612cf2565b9150614415826143ae565b604082019050919050565b60006020820190508181036000830152614439816143fd565b9050919050565b600061444b82612da2565b91507fffffffffffffffffffffffffffffffffffffffffffffffffffffffffffffffff820361447d5761447c6137ef565b5b600182019050919050565b7f4e487b7100000000000000000000000000000000000000000000000000000000600052601260045260246000fd5b60006144c282612da2565b91506144cd83612da2565b9250826144dd576144dc614488565b5b828204905092915050565b60006144f382612da2565b91506144fe83612da2565b92508261450e5761450d614488565b5b828206905092915050565b7f4e487b7100000000000000000000000000000000000000000000000000000000600052603160045260246000fdfea26469706673582212206a39ff83c9822a4cc8bd1c7b1540738643df8fa200b94570180291e47708df8e64736f6c634300080d0033",
  "immutableReferences": {},
  "source": "// SPDX-License-Identifier: MIT\r\npragma solidity ^0.8.7;\r\n\r\nimport \"@openzeppelin/contracts/token/ERC721/ERC721.sol\";\r\nimport \"@openzeppelin/contracts/utils/Counters.sol\";\r\nimport \"@openzeppelin/contracts/access/Ownable.sol\";\r\nimport \"@openzeppelin/contracts/token/ERC721/extensions/ERC721URIStorage.sol\";\r\nimport \"@openzeppelin/contracts/token/ERC721/extensions/ERC721Enumerable.sol\";\r\n\r\ncontract Ako is ERC721URIStorage, Ownable, ERC721Enumerable {\r\n    using Counters for Counters.Counter;\r\n    Counters.Counter private _tokenIds;\r\n\r\n    constructor() ERC721(\"A-KO\", \"AKO\") {}\r\n\r\n    mapping(uint256 => uint256) public costOfTokens; //   \r\n\r\n    function _beforeTokenTransfer(\r\n        address from,\r\n        address to,\r\n        uint256 tokenId\r\n    ) internal override(ERC721, ERC721Enumerable) {\r\n        super._beforeTokenTransfer(from, to, tokenId);\r\n    }\r\n\r\n    function _burn(uint256 tokenId)\r\n        internal\r\n        override(ERC721, ERC721URIStorage)\r\n    {\r\n        super._burn(tokenId);\r\n    }\r\n\r\n    function supportsInterface(bytes4 interfaceId) // \r\n        public\r\n        view\r\n        override(ERC721, ERC721Enumerable)\r\n        returns (bool)\r\n    {\r\n        return super.supportsInterface(interfaceId);\r\n    }\r\n\r\n    function tokenURI(uint256 tokenId)\r\n        public\r\n        view\r\n        override(ERC721, ERC721URIStorage)\r\n        returns (string memory)\r\n    {\r\n        return super.tokenURI(tokenId);\r\n    }\r\n\r\n    function mintToken(string memory _tokenURI)\r\n        public\r\n        onlyOwner\r\n        returns (uint256)\r\n    {\r\n        _tokenIds.increment();\r\n\r\n        uint256 newItemId = _tokenIds.current();\r\n        _mint(_msgSender(), newItemId);\r\n        _setTokenURI(newItemId, _tokenURI);\r\n\r\n        return newItemId;\r\n    }\r\n\r\n    function sellToken(uint _id, uint _price)\r\n        public\r\n    {\r\n        require(_exists(_id), \"token is not exist\");\r\n        require(_price>=0, \"price should be greater than zero\");\r\n        address tokenOwner = ownerOf(_id);\r\n        require(tokenOwner==msg.sender, \"you are not token owner\");\r\n        _approve(address(this), _id);\r\n        costOfTokens[_id] = _price;\r\n    }\r\n\r\n    function printCost(uint _index) //     \r\n        public\r\n        view\r\n        returns (uint)\r\n    {\r\n        return costOfTokens[_index];\r\n    }\r\n\r\n    function buyToken(uint _id)\r\n        public\r\n        payable\r\n    {\r\n        require(_exists(_id), \"token is not exist\");\r\n        require(getApproved(_id)!=address(0), \"you can not buy\"); //    \r\n        require(ownerOf(_id)!=msg.sender, \"you are token owner\"); //    \r\n        uint _price = costOfTokens[_id];\r\n        address tokenOwner = ownerOf(_id);\r\n        require(_price*1000000000000000000<=msg.value, \"you need more budget\"); //    \r\n        \r\n        (bool paid, ) = tokenOwner.call{gas:0, value: _price*1000000000000000000}(\"\");\r\n        payable(msg.sender).transfer(msg.value - _price*1000000000000000000);\r\n        \r\n        /*\r\n        payable(tokenOwner).transfer(_price*1000000000000000000);\r\n        (bool refunded, ) = msg.sender.call{gas:0, value: msg.value - _price*1000000000000000000}(\"\");\r\n        */\r\n        \r\n        _transfer(tokenOwner, msg.sender, _id);\r\n        costOfTokens[_id] = 0;\r\n    }\r\n\r\n    function changePrice(uint _id, uint _newPrice)\r\n        public\r\n    {\r\n        require(_exists(_id), \"token is not exist\");\r\n        require(_newPrice>=0, \"new price should be greater than zero\");\r\n        address tokenOwner = ownerOf(_id);\r\n        require(tokenOwner==msg.sender, \"you are not token owner\");\r\n        require(getApproved(_id)!=address(0), \"you can not buy\"); //    \r\n        costOfTokens[_id] = _newPrice;\r\n    }\r\n\r\n    function sellCancel(uint _id)\r\n        public\r\n    {\r\n        address tokenOwner = ownerOf(_id);\r\n        require(_exists(_id), \"token is not exist\");\r\n        require(tokenOwner==msg.sender, \"you are not token owner\");\r\n        require(getApproved(_id)!=address(0), \"you can not buy\"); //    \r\n        costOfTokens[_id] = 0;\r\n        _approve(address(0), _id);\r\n    }\r\n}\r\n",
  "sourcePath": "C:\\Users\\YKB\\Desktop\\AKO_nft\\src\\contracts\\Ako.sol",
  "compiler": {
    "name": "solc",
    "version": "0.8.13+commit.abaa5c0e.Emscripten.clang"
  },
  "schemaVersion": "3.4.4",
  "updatedAt": "2022-05-07T07:43:12.681Z",
  "networkType": "ethereum",
  "devdoc": {
    "kind": "dev",
    "methods": {
      "approve(address,uint256)": {
        "details": "See {IERC721-approve}."
      },
      "balanceOf(address)": {
        "details": "See {IERC721-balanceOf}."
      },
      "getApproved(uint256)": {
        "details": "See {IERC721-getApproved}."
      },
      "isApprovedForAll(address,address)": {
        "details": "See {IERC721-isApprovedForAll}."
      },
      "name()": {
        "details": "See {IERC721Metadata-name}."
      },
      "owner()": {
        "details": "Returns the address of the current owner."
      },
      "ownerOf(uint256)": {
        "details": "See {IERC721-ownerOf}."
      },
      "renounceOwnership()": {
        "details": "Leaves the contract without owner. It will not be possible to call `onlyOwner` functions anymore. Can only be called by the current owner. NOTE: Renouncing ownership will leave the contract without an owner, thereby removing any functionality that is only available to the owner."
      },
      "safeTransferFrom(address,address,uint256)": {
        "details": "See {IERC721-safeTransferFrom}."
      },
      "safeTransferFrom(address,address,uint256,bytes)": {
        "details": "See {IERC721-safeTransferFrom}."
      },
      "setApprovalForAll(address,bool)": {
        "details": "See {IERC721-setApprovalForAll}."
      },
      "symbol()": {
        "details": "See {IERC721Metadata-symbol}."
      },
      "tokenByIndex(uint256)": {
        "details": "See {IERC721Enumerable-tokenByIndex}."
      },
      "tokenOfOwnerByIndex(address,uint256)": {
        "details": "See {IERC721Enumerable-tokenOfOwnerByIndex}."
      },
      "totalSupply()": {
        "details": "See {IERC721Enumerable-totalSupply}."
      },
      "transferFrom(address,address,uint256)": {
        "details": "See {IERC721-transferFrom}."
      },
      "transferOwnership(address)": {
        "details": "Transfers ownership of the contract to a new account (`newOwner`). Can only be called by the current owner."
      }
    },
    "version": 1
  },
  "userdoc": {
    "kind": "user",
    "methods": {},
    "version": 1
  }
}