{
  "contractName": "Ako",
  "abi": [
    {
      "inputs": [],
      "stateMutability": "nonpayable",
      "type": "constructor"
    },
    {
      "anonymous": false,
      "inputs": [
        {
          "indexed": true,
          "internalType": "address",
          "name": "owner",
          "type": "address"
        },
        {
          "indexed": true,
          "internalType": "address",
          "name": "approved",
          "type": "address"
        },
        {
          "indexed": true,
          "internalType": "uint256",
          "name": "tokenId",
          "type": "uint256"
        }
      ],
      "name": "Approval",
      "type": "event"
    },
    {
      "anonymous": false,
      "inputs": [
        {
          "indexed": true,
          "internalType": "address",
          "name": "owner",
          "type": "address"
        },
        {
          "indexed": true,
          "internalType": "address",
          "name": "operator",
          "type": "address"
        },
        {
          "indexed": false,
          "internalType": "bool",
          "name": "approved",
          "type": "bool"
        }
      ],
      "name": "ApprovalForAll",
      "type": "event"
    },
    {
      "anonymous": false,
      "inputs": [
        {
          "indexed": true,
          "internalType": "address",
          "name": "previousOwner",
          "type": "address"
        },
        {
          "indexed": true,
          "internalType": "address",
          "name": "newOwner",
          "type": "address"
        }
      ],
      "name": "OwnershipTransferred",
      "type": "event"
    },
    {
      "anonymous": false,
      "inputs": [
        {
          "indexed": true,
          "internalType": "address",
          "name": "from",
          "type": "address"
        },
        {
          "indexed": true,
          "internalType": "address",
          "name": "to",
          "type": "address"
        },
        {
          "indexed": true,
          "internalType": "uint256",
          "name": "tokenId",
          "type": "uint256"
        }
      ],
      "name": "Transfer",
      "type": "event"
    },
    {
      "inputs": [
        {
          "internalType": "uint256",
          "name": "",
          "type": "uint256"
        }
      ],
      "name": "akos",
      "outputs": [
        {
          "internalType": "string",
          "name": "",
          "type": "string"
        }
      ],
      "stateMutability": "view",
      "type": "function"
    },
    {
      "inputs": [
        {
          "internalType": "uint256",
          "name": "",
          "type": "uint256"
        }
      ],
      "name": "akos_approved",
      "outputs": [
        {
          "internalType": "bool",
          "name": "",
          "type": "bool"
        }
      ],
      "stateMutability": "view",
      "type": "function"
    },
    {
      "inputs": [
        {
          "internalType": "uint256",
          "name": "",
          "type": "uint256"
        }
      ],
      "name": "akos_owners",
      "outputs": [
        {
          "internalType": "address",
          "name": "",
          "type": "address"
        }
      ],
      "stateMutability": "view",
      "type": "function"
    },
    {
      "inputs": [
        {
          "internalType": "uint256",
          "name": "",
          "type": "uint256"
        }
      ],
      "name": "akos_price",
      "outputs": [
        {
          "internalType": "uint256",
          "name": "",
          "type": "uint256"
        }
      ],
      "stateMutability": "view",
      "type": "function"
    },
    {
      "inputs": [
        {
          "internalType": "address",
          "name": "to",
          "type": "address"
        },
        {
          "internalType": "uint256",
          "name": "tokenId",
          "type": "uint256"
        }
      ],
      "name": "approve",
      "outputs": [],
      "stateMutability": "nonpayable",
      "type": "function"
    },
    {
      "inputs": [
        {
          "internalType": "address",
          "name": "owner",
          "type": "address"
        }
      ],
      "name": "balanceOf",
      "outputs": [
        {
          "internalType": "uint256",
          "name": "",
          "type": "uint256"
        }
      ],
      "stateMutability": "view",
      "type": "function"
    },
    {
      "inputs": [
        {
          "internalType": "uint256",
          "name": "",
          "type": "uint256"
        }
      ],
      "name": "costOfTokens",
      "outputs": [
        {
          "internalType": "uint256",
          "name": "",
          "type": "uint256"
        }
      ],
      "stateMutability": "view",
      "type": "function"
    },
    {
      "inputs": [
        {
          "internalType": "uint256",
          "name": "tokenId",
          "type": "uint256"
        }
      ],
      "name": "getApproved",
      "outputs": [
        {
          "internalType": "address",
          "name": "",
          "type": "address"
        }
      ],
      "stateMutability": "view",
      "type": "function"
    },
    {
      "inputs": [
        {
          "internalType": "address",
          "name": "owner",
          "type": "address"
        },
        {
          "internalType": "address",
          "name": "operator",
          "type": "address"
        }
      ],
      "name": "isApprovedForAll",
      "outputs": [
        {
          "internalType": "bool",
          "name": "",
          "type": "bool"
        }
      ],
      "stateMutability": "view",
      "type": "function"
    },
    {
      "inputs": [],
      "name": "name",
      "outputs": [
        {
          "internalType": "string",
          "name": "",
          "type": "string"
        }
      ],
      "stateMutability": "view",
      "type": "function"
    },
    {
      "inputs": [],
      "name": "owner",
      "outputs": [
        {
          "internalType": "address",
          "name": "",
          "type": "address"
        }
      ],
      "stateMutability": "view",
      "type": "function"
    },
    {
      "inputs": [
        {
          "internalType": "uint256",
          "name": "tokenId",
          "type": "uint256"
        }
      ],
      "name": "ownerOf",
      "outputs": [
        {
          "internalType": "address",
          "name": "",
          "type": "address"
        }
      ],
      "stateMutability": "view",
      "type": "function"
    },
    {
      "inputs": [],
      "name": "renounceOwnership",
      "outputs": [],
      "stateMutability": "nonpayable",
      "type": "function"
    },
    {
      "inputs": [
        {
          "internalType": "address",
          "name": "from",
          "type": "address"
        },
        {
          "internalType": "address",
          "name": "to",
          "type": "address"
        },
        {
          "internalType": "uint256",
          "name": "tokenId",
          "type": "uint256"
        }
      ],
      "name": "safeTransferFrom",
      "outputs": [],
      "stateMutability": "nonpayable",
      "type": "function"
    },
    {
      "inputs": [
        {
          "internalType": "address",
          "name": "from",
          "type": "address"
        },
        {
          "internalType": "address",
          "name": "to",
          "type": "address"
        },
        {
          "internalType": "uint256",
          "name": "tokenId",
          "type": "uint256"
        },
        {
          "internalType": "bytes",
          "name": "_data",
          "type": "bytes"
        }
      ],
      "name": "safeTransferFrom",
      "outputs": [],
      "stateMutability": "nonpayable",
      "type": "function"
    },
    {
      "inputs": [
        {
          "internalType": "address",
          "name": "operator",
          "type": "address"
        },
        {
          "internalType": "bool",
          "name": "approved",
          "type": "bool"
        }
      ],
      "name": "setApprovalForAll",
      "outputs": [],
      "stateMutability": "nonpayable",
      "type": "function"
    },
    {
      "inputs": [],
      "name": "symbol",
      "outputs": [
        {
          "internalType": "string",
          "name": "",
          "type": "string"
        }
      ],
      "stateMutability": "view",
      "type": "function"
    },
    {
      "inputs": [
        {
          "internalType": "uint256",
          "name": "index",
          "type": "uint256"
        }
      ],
      "name": "tokenByIndex",
      "outputs": [
        {
          "internalType": "uint256",
          "name": "",
          "type": "uint256"
        }
      ],
      "stateMutability": "view",
      "type": "function"
    },
    {
      "inputs": [
        {
          "internalType": "address",
          "name": "owner",
          "type": "address"
        },
        {
          "internalType": "uint256",
          "name": "index",
          "type": "uint256"
        }
      ],
      "name": "tokenOfOwnerByIndex",
      "outputs": [
        {
          "internalType": "uint256",
          "name": "",
          "type": "uint256"
        }
      ],
      "stateMutability": "view",
      "type": "function"
    },
    {
      "inputs": [],
      "name": "totalSupply",
      "outputs": [
        {
          "internalType": "uint256",
          "name": "",
          "type": "uint256"
        }
      ],
      "stateMutability": "view",
      "type": "function"
    },
    {
      "inputs": [
        {
          "internalType": "address",
          "name": "from",
          "type": "address"
        },
        {
          "internalType": "address",
          "name": "to",
          "type": "address"
        },
        {
          "internalType": "uint256",
          "name": "tokenId",
          "type": "uint256"
        }
      ],
      "name": "transferFrom",
      "outputs": [],
      "stateMutability": "nonpayable",
      "type": "function"
    },
    {
      "inputs": [
        {
          "internalType": "address",
          "name": "newOwner",
          "type": "address"
        }
      ],
      "name": "transferOwnership",
      "outputs": [],
      "stateMutability": "nonpayable",
      "type": "function"
    },
    {
      "inputs": [
        {
          "internalType": "bytes4",
          "name": "interfaceId",
          "type": "bytes4"
        }
      ],
      "name": "supportsInterface",
      "outputs": [
        {
          "internalType": "bool",
          "name": "",
          "type": "bool"
        }
      ],
      "stateMutability": "view",
      "type": "function"
    },
    {
      "inputs": [
        {
          "internalType": "uint256",
          "name": "tokenId",
          "type": "uint256"
        }
      ],
      "name": "tokenURI",
      "outputs": [
        {
          "internalType": "string",
          "name": "",
          "type": "string"
        }
      ],
      "stateMutability": "view",
      "type": "function"
    },
    {
      "inputs": [
        {
          "internalType": "string",
          "name": "_tokenURI",
          "type": "string"
        }
      ],
      "name": "mintToken",
      "outputs": [
        {
          "internalType": "uint256",
          "name": "",
          "type": "uint256"
        }
      ],
      "stateMutability": "nonpayable",
      "type": "function"
    },
    {
      "inputs": [
        {
          "internalType": "uint256",
          "name": "_id",
          "type": "uint256"
        },
        {
          "internalType": "uint256",
          "name": "_price",
          "type": "uint256"
        }
      ],
      "name": "sellToken",
      "outputs": [],
      "stateMutability": "nonpayable",
      "type": "function"
    },
    {
      "inputs": [
        {
          "internalType": "uint256",
          "name": "_index",
          "type": "uint256"
        }
      ],
      "name": "printCost",
      "outputs": [
        {
          "internalType": "uint256",
          "name": "",
          "type": "uint256"
        }
      ],
      "stateMutability": "view",
      "type": "function"
    },
    {
      "inputs": [
        {
          "internalType": "uint256",
          "name": "_id",
          "type": "uint256"
        }
      ],
      "name": "buyToken",
      "outputs": [],
      "stateMutability": "payable",
      "type": "function"
    },
    {
      "inputs": [
        {
          "internalType": "uint256",
          "name": "_id",
          "type": "uint256"
        },
        {
          "internalType": "uint256",
          "name": "_newPrice",
          "type": "uint256"
        }
      ],
      "name": "changePrice",
      "outputs": [],
      "stateMutability": "nonpayable",
      "type": "function"
    },
    {
      "inputs": [
        {
          "internalType": "uint256",
          "name": "_id",
          "type": "uint256"
        }
      ],
      "name": "sellCancel",
      "outputs": [],
      "stateMutability": "nonpayable",
      "type": "function"
    }
  ],
  "bytecode": "0x60806040523480156200001157600080fd5b506040518060400160405280600481526020017f412d4b4f000000000000000000000000000000000000000000000000000000008152506040518060400160405280600381526020017f414b4f0000000000000000000000000000000000000000000000000000000000815250816000908051906020019062000096929190620001a6565b508060019080519060200190620000af929190620001a6565b505050620000d2620000c6620000d860201b60201c565b620000e060201b60201c565b620002ba565b600033905090565b6000600760009054906101000a900473ffffffffffffffffffffffffffffffffffffffff16905081600760006101000a81548173ffffffffffffffffffffffffffffffffffffffff021916908373ffffffffffffffffffffffffffffffffffffffff1602179055508173ffffffffffffffffffffffffffffffffffffffff168173ffffffffffffffffffffffffffffffffffffffff167f8be0079c531659141344cd1fd0a4f28419497f9722a3daafe3b4186f6b6457e060405160405180910390a35050565b828054620001b49062000285565b90600052602060002090601f016020900481019282620001d8576000855562000224565b82601f10620001f357805160ff191683800117855562000224565b8280016001018555821562000224579182015b828111156200022357825182559160200191906001019062000206565b5b50905062000233919062000237565b5090565b5b808211156200025257600081600090555060010162000238565b5090565b7f4e487b7100000000000000000000000000000000000000000000000000000000600052602260045260246000fd5b600060028204905060018216806200029e57607f821691505b602082108103620002b457620002b362000256565b5b50919050565b614aa780620002ca6000396000f3fe6080604052600436106101cd5760003560e01c80634932c35a116100f757806395d89b4111610095578063c87b56dd11610064578063c87b56dd146106d5578063e985e9c514610712578063e9afd06c1461074f578063f2fde38b1461078c576101cd565b806395d89b411461062f578063a22cb4651461065a578063b3de019c14610683578063b88d4fde146106ac576101cd565b80636352211e116100d15780636352211e1461057357806370a08231146105b0578063715018a6146105ed5780638da5cb5b14610604576101cd565b80634932c35a146104bc5780634f6ccce7146104f9578063634aa89914610536576101cd565b80631897bcf31161016f5780632f745c591161013e5780632f745c59146103f057806333eba49a1461042d5780633cb268171461046a57806342842e0e14610493576101cd565b80631897bcf31461034557806323b872dd1461036e5780632b471582146103975780632d296bf1146103d4576101cd565b8063081812fc116101ab578063081812fc14610277578063095ea7b3146102b45780630ca9dc7a146102dd57806318160ddd1461031a576101cd565b806301ffc9a7146101d2578063026f38f11461020f57806306fdde031461024c575b600080fd5b3480156101de57600080fd5b506101f960048036038101906101f491906131f3565b6107b5565b604051610206919061323b565b60405180910390f35b34801561021b57600080fd5b506102366004803603810190610231919061328c565b6107c7565b60405161024391906132c8565b60405180910390f35b34801561025857600080fd5b506102616107eb565b60405161026e919061337c565b60405180910390f35b34801561028357600080fd5b5061029e6004803603810190610299919061328c565b61087d565b6040516102ab91906133df565b60405180910390f35b3480156102c057600080fd5b506102db60048036038101906102d69190613426565b610902565b005b3480156102e957600080fd5b5061030460048036038101906102ff919061328c565b610a19565b60405161031191906133df565b60405180910390f35b34801561032657600080fd5b5061032f610a58565b60405161033c91906132c8565b60405180910390f35b34801561035157600080fd5b5061036c60048036038101906103679190613466565b610a65565b005b34801561037a57600080fd5b50610395600480360381019061039091906134a6565b610c84565b005b3480156103a357600080fd5b506103be60048036038101906103b9919061328c565b610ce4565b6040516103cb91906132c8565b60405180910390f35b6103ee60048036038101906103e9919061328c565b610d01565b005b3480156103fc57600080fd5b5061041760048036038101906104129190613426565b611005565b60405161042491906132c8565b60405180910390f35b34801561043957600080fd5b50610454600480360381019061044f919061362e565b6110aa565b60405161046191906132c8565b60405180910390f35b34801561047657600080fd5b50610491600480360381019061048c919061328c565b611272565b005b34801561049f57600080fd5b506104ba60048036038101906104b591906134a6565b61144f565b005b3480156104c857600080fd5b506104e360048036038101906104de919061328c565b61146f565b6040516104f0919061337c565b60405180910390f35b34801561050557600080fd5b50610520600480360381019061051b919061328c565b61151b565b60405161052d91906132c8565b60405180910390f35b34801561054257600080fd5b5061055d6004803603810190610558919061328c565b61158c565b60405161056a91906132c8565b60405180910390f35b34801561057f57600080fd5b5061059a6004803603810190610595919061328c565b6115a4565b6040516105a791906133df565b60405180910390f35b3480156105bc57600080fd5b506105d760048036038101906105d29190613677565b611655565b6040516105e491906132c8565b60405180910390f35b3480156105f957600080fd5b5061060261170c565b005b34801561061057600080fd5b50610619611794565b60405161062691906133df565b60405180910390f35b34801561063b57600080fd5b506106446117be565b604051610651919061337c565b60405180910390f35b34801561066657600080fd5b50610681600480360381019061067c91906136d0565b611850565b005b34801561068f57600080fd5b506106aa60048036038101906106a59190613466565b611866565b005b3480156106b857600080fd5b506106d360048036038101906106ce91906137b1565b611a30565b005b3480156106e157600080fd5b506106fc60048036038101906106f7919061328c565b611a92565b604051610709919061337c565b60405180910390f35b34801561071e57600080fd5b5061073960048036038101906107349190613834565b611aa4565b604051610746919061323b565b60405180910390f35b34801561075b57600080fd5b506107766004803603810190610771919061328c565b611b38565b604051610783919061323b565b60405180910390f35b34801561079857600080fd5b506107b360048036038101906107ae9190613677565b611b6c565b005b60006107c082611c63565b9050919050565b600f81815481106107d757600080fd5b906000526020600020016000915090505481565b6060600080546107fa906138a3565b80601f0160208091040260200160405190810160405280929190818152602001828054610826906138a3565b80156108735780601f1061084857610100808354040283529160200191610873565b820191906000526020600020905b81548152906001019060200180831161085657829003601f168201915b5050505050905090565b600061088882611cdd565b6108c7576040517f08c379a00000000000000000000000000000000000000000000000000000000081526004016108be90613946565b60405180910390fd5b6004600083815260200190815260200160002060009054906101000a900473ffffffffffffffffffffffffffffffffffffffff169050919050565b600061090d826115a4565b90508073ffffffffffffffffffffffffffffffffffffffff168373ffffffffffffffffffffffffffffffffffffffff160361097d576040517f08c379a0000000000000000000000000000000000000000000000000000000008152600401610974906139d8565b60405180910390fd5b8073ffffffffffffffffffffffffffffffffffffffff1661099c611d49565b73ffffffffffffffffffffffffffffffffffffffff1614806109cb57506109ca816109c5611d49565b611aa4565b5b610a0a576040517f08c379a0000000000000000000000000000000000000000000000000000000008152600401610a0190613a6a565b60405180910390fd5b610a148383611d51565b505050565b600e8181548110610a2957600080fd5b906000526020600020016000915054906101000a900473ffffffffffffffffffffffffffffffffffffffff1681565b6000600a80549050905090565b610a6e82611cdd565b610aad576040517f08c379a0000000000000000000000000000000000000000000000000000000008152600401610aa490613ad6565b60405180910390fd5b6000811015610af1576040517f08c379a0000000000000000000000000000000000000000000000000000000008152600401610ae890613b68565b60405180910390fd5b6000610afc836115a4565b90503373ffffffffffffffffffffffffffffffffffffffff168173ffffffffffffffffffffffffffffffffffffffff1614610b6c576040517f08c379a0000000000000000000000000000000000000000000000000000000008152600401610b6390613bd4565b60405180910390fd5b600073ffffffffffffffffffffffffffffffffffffffff16610b8d8461087d565b73ffffffffffffffffffffffffffffffffffffffff1614610be3576040517f08c379a0000000000000000000000000000000000000000000000000000000008152600401610bda90613c40565b60405180910390fd5b610bed3084611d51565b81601160008581526020019081526020016000208190555081600f600185610c159190613c8f565b81548110610c2657610c25613cc3565b5b906000526020600020018190555060016010600185610c459190613c8f565b81548110610c5657610c55613cc3565b5b90600052602060002090602091828204019190066101000a81548160ff021916908315150217905550505050565b610c95610c8f611d49565b82611e0a565b610cd4576040517f08c379a0000000000000000000000000000000000000000000000000000000008152600401610ccb90613d64565b60405180910390fd5b610cdf838383611ee8565b505050565b600060116000838152602001908152602001600020549050919050565b610d0a81611cdd565b610d49576040517f08c379a0000000000000000000000000000000000000000000000000000000008152600401610d4090613ad6565b60405180910390fd5b600073ffffffffffffffffffffffffffffffffffffffff16610d6a8261087d565b73ffffffffffffffffffffffffffffffffffffffff1603610dc0576040517f08c379a0000000000000000000000000000000000000000000000000000000008152600401610db790613c40565b60405180910390fd5b3373ffffffffffffffffffffffffffffffffffffffff16610de0826115a4565b73ffffffffffffffffffffffffffffffffffffffff1603610e36576040517f08c379a0000000000000000000000000000000000000000000000000000000008152600401610e2d90613dd0565b60405180910390fd5b6000601160008381526020019081526020016000205490506000610e59836115a4565b905034670de0b6b3a764000083610e709190613df0565b1115610eb1576040517f08c379a0000000000000000000000000000000000000000000000000000000008152600401610ea890613e96565b60405180910390fd5b8073ffffffffffffffffffffffffffffffffffffffff166108fc349081150290604051600060405180830381858888f19350505050158015610ef7573d6000803e3d6000fd5b50610f03813385611ee8565b6000601160008581526020019081526020016000208190555033600e600185610f2c9190613c8f565b81548110610f3d57610f3c613cc3565b5b9060005260206000200160006101000a81548173ffffffffffffffffffffffffffffffffffffffff021916908373ffffffffffffffffffffffffffffffffffffffff1602179055506000600f600185610f969190613c8f565b81548110610fa757610fa6613cc3565b5b906000526020600020018190555060006010600185610fc69190613c8f565b81548110610fd757610fd6613cc3565b5b90600052602060002090602091828204019190066101000a81548160ff021916908315150217905550505050565b600061101083611655565b8210611051576040517f08c379a000000000000000000000000000000000000000000000000000000000815260040161104890613f28565b60405180910390fd5b600860008473ffffffffffffffffffffffffffffffffffffffff1673ffffffffffffffffffffffffffffffffffffffff168152602001908152602001600020600083815260200190815260200160002054905092915050565b60006110b4611d49565b73ffffffffffffffffffffffffffffffffffffffff166110d2611794565b73ffffffffffffffffffffffffffffffffffffffff1614611128576040517f08c379a000000000000000000000000000000000000000000000000000000000815260040161111f90613f94565b60405180910390fd5b611132600c61214e565b600061113e600c612164565b905061115161114b611d49565b82612172565b61115b818461234b565b600d839080600181540180825580915050600190039060005260206000200160009091909190915090805190602001906111969291906130e4565b50600e339080600181540180825580915050600190039060005260206000200160009091909190916101000a81548173ffffffffffffffffffffffffffffffffffffffff021916908373ffffffffffffffffffffffffffffffffffffffff160217905550600f600090806001815401808255809150506001900390600052602060002001600090919091909150556010600090806001815401808255809150506001900390600052602060002090602091828204019190069091909190916101000a81548160ff02191690831515021790555080915050919050565b600061127d826115a4565b905061128882611cdd565b6112c7576040517f08c379a00000000000000000000000000000000000000000000000000000000081526004016112be90613ad6565b60405180910390fd5b3373ffffffffffffffffffffffffffffffffffffffff168173ffffffffffffffffffffffffffffffffffffffff1614611335576040517f08c379a000000000000000000000000000000000000000000000000000000000815260040161132c90613bd4565b60405180910390fd5b600073ffffffffffffffffffffffffffffffffffffffff166113568361087d565b73ffffffffffffffffffffffffffffffffffffffff16036113ac576040517f08c379a00000000000000000000000000000000000000000000000000000000081526004016113a390613c40565b60405180910390fd5b600060116000848152602001908152602001600020819055506113d0600083611d51565b6000600f6001846113e19190613c8f565b815481106113f2576113f1613cc3565b5b9060005260206000200181905550600060106001846114119190613c8f565b8154811061142257611421613cc3565b5b90600052602060002090602091828204019190066101000a81548160ff0219169083151502179055505050565b61146a83838360405180602001604052806000815250611a30565b505050565b600d818154811061147f57600080fd5b90600052602060002001600091509050805461149a906138a3565b80601f01602080910402602001604051908101604052809291908181526020018280546114c6906138a3565b80156115135780601f106114e857610100808354040283529160200191611513565b820191906000526020600020905b8154815290600101906020018083116114f657829003601f168201915b505050505081565b6000611525610a58565b8210611566576040517f08c379a000000000000000000000000000000000000000000000000000000000815260040161155d90614026565b60405180910390fd5b600a828154811061157a57611579613cc3565b5b90600052602060002001549050919050565b60116020528060005260406000206000915090505481565b6000806002600084815260200190815260200160002060009054906101000a900473ffffffffffffffffffffffffffffffffffffffff169050600073ffffffffffffffffffffffffffffffffffffffff168173ffffffffffffffffffffffffffffffffffffffff160361164c576040517f08c379a0000000000000000000000000000000000000000000000000000000008152600401611643906140b8565b60405180910390fd5b80915050919050565b60008073ffffffffffffffffffffffffffffffffffffffff168273ffffffffffffffffffffffffffffffffffffffff16036116c5576040517f08c379a00000000000000000000000000000000000000000000000000000000081526004016116bc9061414a565b60405180910390fd5b600360008373ffffffffffffffffffffffffffffffffffffffff1673ffffffffffffffffffffffffffffffffffffffff168152602001908152602001600020549050919050565b611714611d49565b73ffffffffffffffffffffffffffffffffffffffff16611732611794565b73ffffffffffffffffffffffffffffffffffffffff1614611788576040517f08c379a000000000000000000000000000000000000000000000000000000000815260040161177f90613f94565b60405180910390fd5b61179260006123bf565b565b6000600760009054906101000a900473ffffffffffffffffffffffffffffffffffffffff16905090565b6060600180546117cd906138a3565b80601f01602080910402602001604051908101604052809291908181526020018280546117f9906138a3565b80156118465780601f1061181b57610100808354040283529160200191611846565b820191906000526020600020905b81548152906001019060200180831161182957829003601f168201915b5050505050905090565b61186261185b611d49565b8383612485565b5050565b61186f82611cdd565b6118ae576040517f08c379a00000000000000000000000000000000000000000000000000000000081526004016118a590613ad6565b60405180910390fd5b60008110156118f2576040517f08c379a00000000000000000000000000000000000000000000000000000000081526004016118e9906141dc565b60405180910390fd5b60006118fd836115a4565b90503373ffffffffffffffffffffffffffffffffffffffff168173ffffffffffffffffffffffffffffffffffffffff161461196d576040517f08c379a000000000000000000000000000000000000000000000000000000000815260040161196490613bd4565b60405180910390fd5b600073ffffffffffffffffffffffffffffffffffffffff1661198e8461087d565b73ffffffffffffffffffffffffffffffffffffffff16036119e4576040517f08c379a00000000000000000000000000000000000000000000000000000000081526004016119db90613c40565b60405180910390fd5b81601160008581526020019081526020016000208190555081600f600185611a0c9190613c8f565b81548110611a1d57611a1c613cc3565b5b9060005260206000200181905550505050565b611a41611a3b611d49565b83611e0a565b611a80576040517f08c379a0000000000000000000000000000000000000000000000000000000008152600401611a7790613d64565b60405180910390fd5b611a8c848484846125f1565b50505050565b6060611a9d8261264d565b9050919050565b6000600560008473ffffffffffffffffffffffffffffffffffffffff1673ffffffffffffffffffffffffffffffffffffffff16815260200190815260200160002060008373ffffffffffffffffffffffffffffffffffffffff1673ffffffffffffffffffffffffffffffffffffffff16815260200190815260200160002060009054906101000a900460ff16905092915050565b60108181548110611b4857600080fd5b9060005260206000209060209182820401919006915054906101000a900460ff1681565b611b74611d49565b73ffffffffffffffffffffffffffffffffffffffff16611b92611794565b73ffffffffffffffffffffffffffffffffffffffff1614611be8576040517f08c379a0000000000000000000000000000000000000000000000000000000008152600401611bdf90613f94565b60405180910390fd5b600073ffffffffffffffffffffffffffffffffffffffff168173ffffffffffffffffffffffffffffffffffffffff1603611c57576040517f08c379a0000000000000000000000000000000000000000000000000000000008152600401611c4e9061426e565b60405180910390fd5b611c60816123bf565b50565b60007f780e9d63000000000000000000000000000000000000000000000000000000007bffffffffffffffffffffffffffffffffffffffffffffffffffffffff1916827bffffffffffffffffffffffffffffffffffffffffffffffffffffffff19161480611cd65750611cd58261279e565b5b9050919050565b60008073ffffffffffffffffffffffffffffffffffffffff166002600084815260200190815260200160002060009054906101000a900473ffffffffffffffffffffffffffffffffffffffff1673ffffffffffffffffffffffffffffffffffffffff1614159050919050565b600033905090565b816004600083815260200190815260200160002060006101000a81548173ffffffffffffffffffffffffffffffffffffffff021916908373ffffffffffffffffffffffffffffffffffffffff160217905550808273ffffffffffffffffffffffffffffffffffffffff16611dc4836115a4565b73ffffffffffffffffffffffffffffffffffffffff167f8c5be1e5ebec7d5bd14f71427d1e84f3dd0314c0f7b2291e5b200ac8c7c3b92560405160405180910390a45050565b6000611e1582611cdd565b611e54576040517f08c379a0000000000000000000000000000000000000000000000000000000008152600401611e4b90614300565b60405180910390fd5b6000611e5f836115a4565b90508073ffffffffffffffffffffffffffffffffffffffff168473ffffffffffffffffffffffffffffffffffffffff161480611ece57508373ffffffffffffffffffffffffffffffffffffffff16611eb68461087d565b73ffffffffffffffffffffffffffffffffffffffff16145b80611edf5750611ede8185611aa4565b5b91505092915050565b8273ffffffffffffffffffffffffffffffffffffffff16611f08826115a4565b73ffffffffffffffffffffffffffffffffffffffff1614611f5e576040517f08c379a0000000000000000000000000000000000000000000000000000000008152600401611f5590614392565b60405180910390fd5b600073ffffffffffffffffffffffffffffffffffffffff168273ffffffffffffffffffffffffffffffffffffffff1603611fcd576040517f08c379a0000000000000000000000000000000000000000000000000000000008152600401611fc490614424565b60405180910390fd5b611fd8838383612880565b611fe3600082611d51565b6001600360008573ffffffffffffffffffffffffffffffffffffffff1673ffffffffffffffffffffffffffffffffffffffff16815260200190815260200160002060008282546120339190613c8f565b925050819055506001600360008473ffffffffffffffffffffffffffffffffffffffff1673ffffffffffffffffffffffffffffffffffffffff168152602001908152602001600020600082825461208a9190614444565b92505081905550816002600083815260200190815260200160002060006101000a81548173ffffffffffffffffffffffffffffffffffffffff021916908373ffffffffffffffffffffffffffffffffffffffff160217905550808273ffffffffffffffffffffffffffffffffffffffff168473ffffffffffffffffffffffffffffffffffffffff167fddf252ad1be2c89b69c2b068fc378daa952ba7f163c4a11628f55a4df523b3ef60405160405180910390a4612149838383612890565b505050565b6001816000016000828254019250508190555050565b600081600001549050919050565b600073ffffffffffffffffffffffffffffffffffffffff168273ffffffffffffffffffffffffffffffffffffffff16036121e1576040517f08c379a00000000000000000000000000000000000000000000000000000000081526004016121d8906144e6565b60405180910390fd5b6121ea81611cdd565b1561222a576040517f08c379a000000000000000000000000000000000000000000000000000000000815260040161222190614552565b60405180910390fd5b61223660008383612880565b6001600360008473ffffffffffffffffffffffffffffffffffffffff1673ffffffffffffffffffffffffffffffffffffffff16815260200190815260200160002060008282546122869190614444565b92505081905550816002600083815260200190815260200160002060006101000a81548173ffffffffffffffffffffffffffffffffffffffff021916908373ffffffffffffffffffffffffffffffffffffffff160217905550808273ffffffffffffffffffffffffffffffffffffffff16600073ffffffffffffffffffffffffffffffffffffffff167fddf252ad1be2c89b69c2b068fc378daa952ba7f163c4a11628f55a4df523b3ef60405160405180910390a461234760008383612890565b5050565b61235482611cdd565b612393576040517f08c379a000000000000000000000000000000000000000000000000000000000815260040161238a906145e4565b60405180910390fd5b806006600084815260200190815260200160002090805190602001906123ba9291906130e4565b505050565b6000600760009054906101000a900473ffffffffffffffffffffffffffffffffffffffff16905081600760006101000a81548173ffffffffffffffffffffffffffffffffffffffff021916908373ffffffffffffffffffffffffffffffffffffffff1602179055508173ffffffffffffffffffffffffffffffffffffffff168173ffffffffffffffffffffffffffffffffffffffff167f8be0079c531659141344cd1fd0a4f28419497f9722a3daafe3b4186f6b6457e060405160405180910390a35050565b8173ffffffffffffffffffffffffffffffffffffffff168373ffffffffffffffffffffffffffffffffffffffff16036124f3576040517f08c379a00000000000000000000000000000000000000000000000000000000081526004016124ea90614650565b60405180910390fd5b80600560008573ffffffffffffffffffffffffffffffffffffffff1673ffffffffffffffffffffffffffffffffffffffff16815260200190815260200160002060008473ffffffffffffffffffffffffffffffffffffffff1673ffffffffffffffffffffffffffffffffffffffff16815260200190815260200160002060006101000a81548160ff0219169083151502179055508173ffffffffffffffffffffffffffffffffffffffff168373ffffffffffffffffffffffffffffffffffffffff167f17307eab39ab6107e8899845ad3d59bd9653f200f220920489ca2b5937696c31836040516125e4919061323b565b60405180910390a3505050565b6125fc848484611ee8565b61260884848484612895565b612647576040517f08c379a000000000000000000000000000000000000000000000000000000000815260040161263e906146e2565b60405180910390fd5b50505050565b606061265882611cdd565b612697576040517f08c379a000000000000000000000000000000000000000000000000000000000815260040161268e90614774565b60405180910390fd5b60006006600084815260200190815260200160002080546126b7906138a3565b80601f01602080910402602001604051908101604052809291908181526020018280546126e3906138a3565b80156127305780601f1061270557610100808354040283529160200191612730565b820191906000526020600020905b81548152906001019060200180831161271357829003601f168201915b505050505090506000612741612a1c565b90506000815103612756578192505050612799565b60008251111561278b5780826040516020016127739291906147d0565b60405160208183030381529060405292505050612799565b61279484612a33565b925050505b919050565b60007f80ac58cd000000000000000000000000000000000000000000000000000000007bffffffffffffffffffffffffffffffffffffffffffffffffffffffff1916827bffffffffffffffffffffffffffffffffffffffffffffffffffffffff1916148061286957507f5b5e139f000000000000000000000000000000000000000000000000000000007bffffffffffffffffffffffffffffffffffffffffffffffffffffffff1916827bffffffffffffffffffffffffffffffffffffffffffffffffffffffff1916145b80612879575061287882612ada565b5b9050919050565b61288b838383612b44565b505050565b505050565b60006128b68473ffffffffffffffffffffffffffffffffffffffff16612c56565b15612a0f578373ffffffffffffffffffffffffffffffffffffffff1663150b7a026128df611d49565b8786866040518563ffffffff1660e01b81526004016129019493929190614849565b6020604051808303816000875af192505050801561293d57506040513d601f19601f8201168201806040525081019061293a91906148aa565b60015b6129bf573d806000811461296d576040519150601f19603f3d011682016040523d82523d6000602084013e612972565b606091505b5060008151036129b7576040517f08c379a00000000000000000000000000000000000000000000000000000000081526004016129ae906146e2565b60405180910390fd5b805181602001fd5b63150b7a0260e01b7bffffffffffffffffffffffffffffffffffffffffffffffffffffffff1916817bffffffffffffffffffffffffffffffffffffffffffffffffffffffff191614915050612a14565b600190505b949350505050565b606060405180602001604052806000815250905090565b6060612a3e82611cdd565b612a7d576040517f08c379a0000000000000000000000000000000000000000000000000000000008152600401612a7490614949565b60405180910390fd5b6000612a87612a1c565b90506000815111612aa75760405180602001604052806000815250612ad2565b80612ab184612c79565b604051602001612ac29291906147d0565b6040516020818303038152906040525b915050919050565b60007f01ffc9a7000000000000000000000000000000000000000000000000000000007bffffffffffffffffffffffffffffffffffffffffffffffffffffffff1916827bffffffffffffffffffffffffffffffffffffffffffffffffffffffff1916149050919050565b612b4f838383612dd9565b600073ffffffffffffffffffffffffffffffffffffffff168373ffffffffffffffffffffffffffffffffffffffff1603612b9157612b8c81612dde565b612bd0565b8173ffffffffffffffffffffffffffffffffffffffff168373ffffffffffffffffffffffffffffffffffffffff1614612bcf57612bce8382612e27565b5b5b600073ffffffffffffffffffffffffffffffffffffffff168273ffffffffffffffffffffffffffffffffffffffff1603612c1257612c0d81612f94565b612c51565b8273ffffffffffffffffffffffffffffffffffffffff168273ffffffffffffffffffffffffffffffffffffffff1614612c5057612c4f8282613065565b5b5b505050565b6000808273ffffffffffffffffffffffffffffffffffffffff163b119050919050565b606060008203612cc0576040518060400160405280600181526020017f30000000000000000000000000000000000000000000000000000000000000008152509050612dd4565b600082905060005b60008214612cf2578080612cdb90614969565b915050600a82612ceb91906149e0565b9150612cc8565b60008167ffffffffffffffff811115612d0e57612d0d613503565b5b6040519080825280601f01601f191660200182016040528015612d405781602001600182028036833780820191505090505b5090505b60008514612dcd57600182612d599190613c8f565b9150600a85612d689190614a11565b6030612d749190614444565b60f81b818381518110612d8a57612d89613cc3565b5b60200101907effffffffffffffffffffffffffffffffffffffffffffffffffffffffffffff1916908160001a905350600a85612dc691906149e0565b9450612d44565b8093505050505b919050565b505050565b600a80549050600b600083815260200190815260200160002081905550600a81908060018154018082558091505060019003906000526020600020016000909190919091505550565b60006001612e3484611655565b612e3e9190613c8f565b9050600060096000848152602001908152602001600020549050818114612f23576000600860008673ffffffffffffffffffffffffffffffffffffffff1673ffffffffffffffffffffffffffffffffffffffff168152602001908152602001600020600084815260200190815260200160002054905080600860008773ffffffffffffffffffffffffffffffffffffffff1673ffffffffffffffffffffffffffffffffffffffff168152602001908152602001600020600084815260200190815260200160002081905550816009600083815260200190815260200160002081905550505b6009600084815260200190815260200160002060009055600860008573ffffffffffffffffffffffffffffffffffffffff1673ffffffffffffffffffffffffffffffffffffffff16815260200190815260200160002060008381526020019081526020016000206000905550505050565b60006001600a80549050612fa89190613c8f565b90506000600b60008481526020019081526020016000205490506000600a8381548110612fd857612fd7613cc3565b5b9060005260206000200154905080600a8381548110612ffa57612ff9613cc3565b5b906000526020600020018190555081600b600083815260200190815260200160002081905550600b600085815260200190815260200160002060009055600a80548061304957613048614a42565b5b6001900381819060005260206000200160009055905550505050565b600061307083611655565b905081600860008573ffffffffffffffffffffffffffffffffffffffff1673ffffffffffffffffffffffffffffffffffffffff168152602001908152602001600020600083815260200190815260200160002081905550806009600084815260200190815260200160002081905550505050565b8280546130f0906138a3565b90600052602060002090601f0160209004810192826131125760008555613159565b82601f1061312b57805160ff1916838001178555613159565b82800160010185558215613159579182015b8281111561315857825182559160200191906001019061313d565b5b509050613166919061316a565b5090565b5b8082111561318357600081600090555060010161316b565b5090565b6000604051905090565b600080fd5b600080fd5b60007fffffffff0000000000000000000000000000000000000000000000000000000082169050919050565b6131d08161319b565b81146131db57600080fd5b50565b6000813590506131ed816131c7565b92915050565b60006020828403121561320957613208613191565b5b6000613217848285016131de565b91505092915050565b60008115159050919050565b61323581613220565b82525050565b6000602082019050613250600083018461322c565b92915050565b6000819050919050565b61326981613256565b811461327457600080fd5b50565b60008135905061328681613260565b92915050565b6000602082840312156132a2576132a1613191565b5b60006132b084828501613277565b91505092915050565b6132c281613256565b82525050565b60006020820190506132dd60008301846132b9565b92915050565b600081519050919050565b600082825260208201905092915050565b60005b8381101561331d578082015181840152602081019050613302565b8381111561332c576000848401525b50505050565b6000601f19601f8301169050919050565b600061334e826132e3565b61335881856132ee565b93506133688185602086016132ff565b61337181613332565b840191505092915050565b600060208201905081810360008301526133968184613343565b905092915050565b600073ffffffffffffffffffffffffffffffffffffffff82169050919050565b60006133c98261339e565b9050919050565b6133d9816133be565b82525050565b60006020820190506133f460008301846133d0565b92915050565b613403816133be565b811461340e57600080fd5b50565b600081359050613420816133fa565b92915050565b6000806040838503121561343d5761343c613191565b5b600061344b85828601613411565b925050602061345c85828601613277565b9150509250929050565b6000806040838503121561347d5761347c613191565b5b600061348b85828601613277565b925050602061349c85828601613277565b9150509250929050565b6000806000606084860312156134bf576134be613191565b5b60006134cd86828701613411565b93505060206134de86828701613411565b92505060406134ef86828701613277565b9150509250925092565b600080fd5b600080fd5b7f4e487b7100000000000000000000000000000000000000000000000000000000600052604160045260246000fd5b61353b82613332565b810181811067ffffffffffffffff8211171561355a57613559613503565b5b80604052505050565b600061356d613187565b90506135798282613532565b919050565b600067ffffffffffffffff82111561359957613598613503565b5b6135a282613332565b9050602081019050919050565b82818337600083830152505050565b60006135d16135cc8461357e565b613563565b9050828152602081018484840111156135ed576135ec6134fe565b5b6135f88482856135af565b509392505050565b600082601f830112613615576136146134f9565b5b81356136258482602086016135be565b91505092915050565b60006020828403121561364457613643613191565b5b600082013567ffffffffffffffff81111561366257613661613196565b5b61366e84828501613600565b91505092915050565b60006020828403121561368d5761368c613191565b5b600061369b84828501613411565b91505092915050565b6136ad81613220565b81146136b857600080fd5b50565b6000813590506136ca816136a4565b92915050565b600080604083850312156136e7576136e6613191565b5b60006136f585828601613411565b9250506020613706858286016136bb565b9150509250929050565b600067ffffffffffffffff82111561372b5761372a613503565b5b61373482613332565b9050602081019050919050565b600061375461374f84613710565b613563565b9050828152602081018484840111156137705761376f6134fe565b5b61377b8482856135af565b509392505050565b600082601f830112613798576137976134f9565b5b81356137a8848260208601613741565b91505092915050565b600080600080608085870312156137cb576137ca613191565b5b60006137d987828801613411565b94505060206137ea87828801613411565b93505060406137fb87828801613277565b925050606085013567ffffffffffffffff81111561381c5761381b613196565b5b61382887828801613783565b91505092959194509250565b6000806040838503121561384b5761384a613191565b5b600061385985828601613411565b925050602061386a85828601613411565b9150509250929050565b7f4e487b7100000000000000000000000000000000000000000000000000000000600052602260045260246000fd5b600060028204905060018216806138bb57607f821691505b6020821081036138ce576138cd613874565b5b50919050565b7f4552433732313a20617070726f76656420717565727920666f72206e6f6e657860008201527f697374656e7420746f6b656e0000000000000000000000000000000000000000602082015250565b6000613930602c836132ee565b915061393b826138d4565b604082019050919050565b6000602082019050818103600083015261395f81613923565b9050919050565b7f4552433732313a20617070726f76616c20746f2063757272656e74206f776e6560008201527f7200000000000000000000000000000000000000000000000000000000000000602082015250565b60006139c26021836132ee565b91506139cd82613966565b604082019050919050565b600060208201905081810360008301526139f1816139b5565b9050919050565b7f4552433732313a20617070726f76652063616c6c6572206973206e6f74206f7760008201527f6e6572206e6f7220617070726f76656420666f7220616c6c0000000000000000602082015250565b6000613a546038836132ee565b9150613a5f826139f8565b604082019050919050565b60006020820190508181036000830152613a8381613a47565b9050919050565b7f746f6b656e206973206e6f742065786973740000000000000000000000000000600082015250565b6000613ac06012836132ee565b9150613acb82613a8a565b602082019050919050565b60006020820190508181036000830152613aef81613ab3565b9050919050565b7f70726963652073686f756c642062652067726561746572207468616e207a657260008201527f6f00000000000000000000000000000000000000000000000000000000000000602082015250565b6000613b526021836132ee565b9150613b5d82613af6565b604082019050919050565b60006020820190508181036000830152613b8181613b45565b9050919050565b7f796f7520617265206e6f7420746f6b656e206f776e6572000000000000000000600082015250565b6000613bbe6017836132ee565b9150613bc982613b88565b602082019050919050565b60006020820190508181036000830152613bed81613bb1565b9050919050565b7f796f752063616e206e6f74206275790000000000000000000000000000000000600082015250565b6000613c2a600f836132ee565b9150613c3582613bf4565b602082019050919050565b60006020820190508181036000830152613c5981613c1d565b9050919050565b7f4e487b7100000000000000000000000000000000000000000000000000000000600052601160045260246000fd5b6000613c9a82613256565b9150613ca583613256565b925082821015613cb857613cb7613c60565b5b828203905092915050565b7f4e487b7100000000000000000000000000000000000000000000000000000000600052603260045260246000fd5b7f4552433732313a207472616e736665722063616c6c6572206973206e6f74206f60008201527f776e6572206e6f7220617070726f766564000000000000000000000000000000602082015250565b6000613d4e6031836132ee565b9150613d5982613cf2565b604082019050919050565b60006020820190508181036000830152613d7d81613d41565b9050919050565b7f796f752061726520746f6b656e206f776e657200000000000000000000000000600082015250565b6000613dba6013836132ee565b9150613dc582613d84565b602082019050919050565b60006020820190508181036000830152613de981613dad565b9050919050565b6000613dfb82613256565b9150613e0683613256565b9250817fffffffffffffffffffffffffffffffffffffffffffffffffffffffffffffffff0483118215151615613e3f57613e3e613c60565b5b828202905092915050565b7f796f75206e656564206d6f726520627564676574000000000000000000000000600082015250565b6000613e806014836132ee565b9150613e8b82613e4a565b602082019050919050565b60006020820190508181036000830152613eaf81613e73565b9050919050565b7f455243373231456e756d657261626c653a206f776e657220696e646578206f7560008201527f74206f6620626f756e6473000000000000000000000000000000000000000000602082015250565b6000613f12602b836132ee565b9150613f1d82613eb6565b604082019050919050565b60006020820190508181036000830152613f4181613f05565b9050919050565b7f4f776e61626c653a2063616c6c6572206973206e6f7420746865206f776e6572600082015250565b6000613f7e6020836132ee565b9150613f8982613f48565b602082019050919050565b60006020820190508181036000830152613fad81613f71565b9050919050565b7f455243373231456e756d657261626c653a20676c6f62616c20696e646578206f60008201527f7574206f6620626f756e64730000000000000000000000000000000000000000602082015250565b6000614010602c836132ee565b915061401b82613fb4565b604082019050919050565b6000602082019050818103600083015261403f81614003565b9050919050565b7f4552433732313a206f776e657220717565727920666f72206e6f6e657869737460008201527f656e7420746f6b656e0000000000000000000000000000000000000000000000602082015250565b60006140a26029836132ee565b91506140ad82614046565b604082019050919050565b600060208201905081810360008301526140d181614095565b9050919050565b7f4552433732313a2062616c616e636520717565727920666f7220746865207a6560008201527f726f206164647265737300000000000000000000000000000000000000000000602082015250565b6000614134602a836132ee565b915061413f826140d8565b604082019050919050565b6000602082019050818103600083015261416381614127565b9050919050565b7f6e65772070726963652073686f756c642062652067726561746572207468616e60008201527f207a65726f000000000000000000000000000000000000000000000000000000602082015250565b60006141c66025836132ee565b91506141d18261416a565b604082019050919050565b600060208201905081810360008301526141f5816141b9565b9050919050565b7f4f776e61626c653a206e6577206f776e657220697320746865207a65726f206160008201527f6464726573730000000000000000000000000000000000000000000000000000602082015250565b60006142586026836132ee565b9150614263826141fc565b604082019050919050565b600060208201905081810360008301526142878161424b565b9050919050565b7f4552433732313a206f70657261746f7220717565727920666f72206e6f6e657860008201527f697374656e7420746f6b656e0000000000000000000000000000000000000000602082015250565b60006142ea602c836132ee565b91506142f58261428e565b604082019050919050565b60006020820190508181036000830152614319816142dd565b9050919050565b7f4552433732313a207472616e736665722066726f6d20696e636f72726563742060008201527f6f776e6572000000000000000000000000000000000000000000000000000000602082015250565b600061437c6025836132ee565b915061438782614320565b604082019050919050565b600060208201905081810360008301526143ab8161436f565b9050919050565b7f4552433732313a207472616e7366657220746f20746865207a65726f2061646460008201527f7265737300000000000000000000000000000000000000000000000000000000602082015250565b600061440e6024836132ee565b9150614419826143b2565b604082019050919050565b6000602082019050818103600083015261443d81614401565b9050919050565b600061444f82613256565b915061445a83613256565b9250827fffffffffffffffffffffffffffffffffffffffffffffffffffffffffffffffff0382111561448f5761448e613c60565b5b828201905092915050565b7f4552433732313a206d696e7420746f20746865207a65726f2061646472657373600082015250565b60006144d06020836132ee565b91506144db8261449a565b602082019050919050565b600060208201905081810360008301526144ff816144c3565b9050919050565b7f4552433732313a20746f6b656e20616c7265616479206d696e74656400000000600082015250565b600061453c601c836132ee565b915061454782614506565b602082019050919050565b6000602082019050818103600083015261456b8161452f565b9050919050565b7f45524337323155524953746f726167653a2055524920736574206f66206e6f6e60008201527f6578697374656e7420746f6b656e000000000000000000000000000000000000602082015250565b60006145ce602e836132ee565b91506145d982614572565b604082019050919050565b600060208201905081810360008301526145fd816145c1565b9050919050565b7f4552433732313a20617070726f766520746f2063616c6c657200000000000000600082015250565b600061463a6019836132ee565b915061464582614604565b602082019050919050565b600060208201905081810360008301526146698161462d565b9050919050565b7f4552433732313a207472616e7366657220746f206e6f6e20455243373231526560008201527f63656976657220696d706c656d656e7465720000000000000000000000000000602082015250565b60006146cc6032836132ee565b91506146d782614670565b604082019050919050565b600060208201905081810360008301526146fb816146bf565b9050919050565b7f45524337323155524953746f726167653a2055524920717565727920666f722060008201527f6e6f6e6578697374656e7420746f6b656e000000000000000000000000000000602082015250565b600061475e6031836132ee565b915061476982614702565b604082019050919050565b6000602082019050818103600083015261478d81614751565b9050919050565b600081905092915050565b60006147aa826132e3565b6147b48185614794565b93506147c48185602086016132ff565b80840191505092915050565b60006147dc828561479f565b91506147e8828461479f565b91508190509392505050565b600081519050919050565b600082825260208201905092915050565b600061481b826147f4565b61482581856147ff565b93506148358185602086016132ff565b61483e81613332565b840191505092915050565b600060808201905061485e60008301876133d0565b61486b60208301866133d0565b61487860408301856132b9565b818103606083015261488a8184614810565b905095945050505050565b6000815190506148a4816131c7565b92915050565b6000602082840312156148c0576148bf613191565b5b60006148ce84828501614895565b91505092915050565b7f4552433732314d657461646174613a2055524920717565727920666f72206e6f60008201527f6e6578697374656e7420746f6b656e0000000000000000000000000000000000602082015250565b6000614933602f836132ee565b915061493e826148d7565b604082019050919050565b6000602082019050818103600083015261496281614926565b9050919050565b600061497482613256565b91507fffffffffffffffffffffffffffffffffffffffffffffffffffffffffffffffff82036149a6576149a5613c60565b5b600182019050919050565b7f4e487b7100000000000000000000000000000000000000000000000000000000600052601260045260246000fd5b60006149eb82613256565b91506149f683613256565b925082614a0657614a056149b1565b5b828204905092915050565b6000614a1c82613256565b9150614a2783613256565b925082614a3757614a366149b1565b5b828206905092915050565b7f4e487b7100000000000000000000000000000000000000000000000000000000600052603160045260246000fdfea264697066735822122090e762ac88d66fa9f709d84084ec3dbd68319cdeb11e62917fec7e2717a24af564736f6c634300080d0033",
  "immutableReferences": {},
  "source": "// SPDX-License-Identifier: MIT\npragma solidity ^0.8.7;\n\nimport \"@openzeppelin/contracts/token/ERC721/ERC721.sol\";\nimport \"@openzeppelin/contracts/utils/Counters.sol\";\nimport \"@openzeppelin/contracts/access/Ownable.sol\";\nimport \"@openzeppelin/contracts/token/ERC721/extensions/ERC721URIStorage.sol\";\nimport \"@openzeppelin/contracts/token/ERC721/extensions/ERC721Enumerable.sol\";\n\ncontract Ako is ERC721URIStorage, Ownable, ERC721Enumerable {\n    using Counters for Counters.Counter;\n    Counters.Counter private _tokenIds; // unique id   \n    \n    string [] public akos; // id-1  uri  \n    address [] public akos_owners; // id-1  owner   \n    uint [] public akos_price; // id-1  price  \n    bool [] public akos_approved; // id-1      \n\n    //\n    constructor() ERC721(\"A-KO\", \"AKO\") {}\n\n    mapping(uint256 => uint256) public costOfTokens; // id    \n\n    //    \n    function _beforeTokenTransfer( \n        address from,\n        address to,\n        uint256 tokenId\n    ) internal override(ERC721, ERC721Enumerable) {\n        super._beforeTokenTransfer(from, to, tokenId);\n    }\n\n    //    \n    function _burn(uint256 tokenId) \n        internal\n        override(ERC721, ERC721URIStorage)\n    {\n        super._burn(tokenId);\n    }\n\n    //   \n    function supportsInterface(bytes4 interfaceId) \n        public\n        view\n        override(ERC721, ERC721Enumerable)\n        returns (bool)\n    {\n        return super.supportsInterface(interfaceId);\n    }\n\n    // id    URI  \n    function tokenURI(uint256 tokenId)\n        public\n        view\n        override(ERC721, ERC721URIStorage)\n        returns (string memory)\n    {\n        return super.tokenURI(tokenId);\n    }\n\n    //  URI     \n    function mintToken(string memory _tokenURI)\n        public\n        onlyOwner\n        returns (uint256)\n    {\n        _tokenIds.increment();\n\n        uint256 newItemId = _tokenIds.current();\n        _mint(_msgSender(), newItemId);\n        _setTokenURI(newItemId, _tokenURI);\n        akos.push(_tokenURI);\n        akos_owners.push(msg.sender);\n        akos_price.push(0);\n        akos_approved.push(false);\n\n        return newItemId;\n    }\n\n    //  id       \n    function sellToken(uint _id, uint _price)\n        public\n    {\n        require(_exists(_id), \"token is not exist\");\n        require(_price>=0, \"price should be greater than zero\");\n        address tokenOwner = ownerOf(_id);\n        require(tokenOwner==msg.sender, \"you are not token owner\");\n        require(getApproved(_id)==address(0), \"you can not buy\"); //    \n        _approve(address(this), _id);\n        costOfTokens[_id] = _price;\n        akos_price[_id-1]=_price;\n        akos_approved[_id-1]=true;\n    }\n\n    //     \n    function printCost(uint _index) \n        public\n        view\n        returns (uint)\n    {\n        return costOfTokens[_index];\n    }\n\n    //  id     \n    function buyToken(uint _id)\n        public\n        payable\n    {\n        require(_exists(_id), \"token is not exist\");\n        require(getApproved(_id)!=address(0), \"you can not buy\"); //    \n        require(ownerOf(_id)!=msg.sender, \"you are token owner\"); //    \n        uint _price = costOfTokens[_id];\n        address tokenOwner = ownerOf(_id);\n        require(_price*1000000000000000000<=msg.value, \"you need more budget\"); //        \n        payable(tokenOwner).transfer(msg.value);\n\n        /*\n        // gas       call \n        (bool paid, ) = tokenOwner.call{gas:0, value: _price*1000000000000000000}(\"\");\n        payable(msg.sender).transfer(msg.value - _price*1000000000000000000);\n        */\n        \n        /*\n        payable(tokenOwner).transfer(_price*1000000000000000000);\n        (bool refunded, ) = msg.sender.call{gas:0, value: msg.value - _price*1000000000000000000}(\"\");\n        */\n        \n        _transfer(tokenOwner, msg.sender, _id); //approved  \n        costOfTokens[_id] = 0;\n        akos_owners[_id-1]=msg.sender;\n        akos_price[_id-1]=0;\n        akos_approved[_id-1]=false;\n    }\n\n    // id         \n    function changePrice(uint _id, uint _newPrice)\n        public\n    {\n        require(_exists(_id), \"token is not exist\");\n        require(_newPrice>=0, \"new price should be greater than zero\");\n        address tokenOwner = ownerOf(_id);\n        require(tokenOwner==msg.sender, \"you are not token owner\");\n        require(getApproved(_id)!=address(0), \"you can not buy\"); //    \n        costOfTokens[_id] = _newPrice;\n        akos_price[_id-1]=_newPrice;\n    }\n\n    //  id     \n    function sellCancel(uint _id)\n        public\n    {\n        address tokenOwner = ownerOf(_id);\n        require(_exists(_id), \"token is not exist\");\n        require(tokenOwner==msg.sender, \"you are not token owner\");\n        require(getApproved(_id)!=address(0), \"you can not buy\"); //    \n        costOfTokens[_id] = 0;\n        _approve(address(0), _id);\n        akos_price[_id-1]=0;\n        akos_approved[_id-1]=false;\n    }\n}\n",
  "sourcePath": "/Users/yerim/Desktop/AKO_nft/src/contracts/Ako.sol",
  "compiler": {
    "name": "solc",
    "version": "0.8.13+commit.abaa5c0e.Emscripten.clang"
  },
  "schemaVersion": "3.4.7",
  "updatedAt": "2022-05-12T09:26:21.254Z",
  "devdoc": {
    "kind": "dev",
    "methods": {
      "approve(address,uint256)": {
        "details": "See {IERC721-approve}."
      },
      "balanceOf(address)": {
        "details": "See {IERC721-balanceOf}."
      },
      "getApproved(uint256)": {
        "details": "See {IERC721-getApproved}."
      },
      "isApprovedForAll(address,address)": {
        "details": "See {IERC721-isApprovedForAll}."
      },
      "name()": {
        "details": "See {IERC721Metadata-name}."
      },
      "owner()": {
        "details": "Returns the address of the current owner."
      },
      "ownerOf(uint256)": {
        "details": "See {IERC721-ownerOf}."
      },
      "renounceOwnership()": {
        "details": "Leaves the contract without owner. It will not be possible to call `onlyOwner` functions anymore. Can only be called by the current owner. NOTE: Renouncing ownership will leave the contract without an owner, thereby removing any functionality that is only available to the owner."
      },
      "safeTransferFrom(address,address,uint256)": {
        "details": "See {IERC721-safeTransferFrom}."
      },
      "safeTransferFrom(address,address,uint256,bytes)": {
        "details": "See {IERC721-safeTransferFrom}."
      },
      "setApprovalForAll(address,bool)": {
        "details": "See {IERC721-setApprovalForAll}."
      },
      "symbol()": {
        "details": "See {IERC721Metadata-symbol}."
      },
      "tokenByIndex(uint256)": {
        "details": "See {IERC721Enumerable-tokenByIndex}."
      },
      "tokenOfOwnerByIndex(address,uint256)": {
        "details": "See {IERC721Enumerable-tokenOfOwnerByIndex}."
      },
      "totalSupply()": {
        "details": "See {IERC721Enumerable-totalSupply}."
      },
      "transferFrom(address,address,uint256)": {
        "details": "See {IERC721-transferFrom}."
      },
      "transferOwnership(address)": {
        "details": "Transfers ownership of the contract to a new account (`newOwner`). Can only be called by the current owner."
      }
    },
    "version": 1
  },
  "userdoc": {
    "kind": "user",
    "methods": {},
    "version": 1
  }
}